:1000000014C023C022C021C047C51FC01EC0B5C533
:100010001CC01BC01AC019C018C06BC516C015C0C3
:1000200014C013C012C0DCC410C011241FBECFE521
:10003000D1E0DEBFCDBF20E0A0E6B0E001C01D9260
:10004000AC3DB207E1F7B8D30CC6DACF1ABA8FEFDE
:1000500088BB8FE587BB8EEF81BB789480E090E012
:100060000895C6C0EF92FF921F93CF93DF931F9224
:10007000CDB7DEB7142F880F6983F2D0698100975E
:1000800079F4862FD2D07C01009719F0B6D0C70141
:1000900007C0812FCAD0F82E192FAFD08F2D912FE6
:1000A0000F90DF91CF911F91FF90EF900895CF9225
:1000B000DF92FF920F931F93CF93DF931F92CDB7E1
:1000C000DEB78A01F22E880F6983CAD06981009752
:1000D000D1F4862FAAD06C01009711F4680104C0F6
:1000E0008CD0C60110C0FA94FF2051F0D6018D913A
:1000F0006D019BD08C010097B1F37FD0C80103C084
:100100007CD080E090E00F90DF91CF911F910F9114
:10011000FF90DF90CF9008958F929F92BF92CF92E1
:10012000DF92EF92FF920F931F93CF93DF931F9273
:10013000CDB7DEB7182F6A01B22E880F698390D031
:100140007C016981009729F4862F6FD07C0100978C
:1001500019F053D0C70128C050D0812F880F81607B
:100160007FD08C010097C1F4812C912CEB2CF12CC9
:1001700021E0E21AF108C601880D991D8B1488F45C
:100180008E149F0461F060E084D08C018FEF881A98
:10019000980A0115110579F330D0C80105C061E056
:1001A000F3CF2BD080E090E00F90DF91CF911F91A3
:1001B0000F91FF90EF90DF90CF90BF909F908F9026
:1001C0000895C59ABD980895C79ABF98089581115A
:1001D000F8CFC598BD9A0895BD98000086B385FBF9
:1001E000882780F908958111EFCFC798BF9A0895A5
:1001F000EBDFE7DF80E090E0089580E0E8DFE4DF18
:100200000000DFDF80E090E00895CF93DDDF0000A5
:10021000E3DFC82F80E0E7DFC11103C080E390E097
:1002200002C081E390E0CF910895CF93DF93D82F60
:10023000C8E080E0D8DF8D2F881F8827881FC7DFA0
:10024000C3DFDD0FC150A9F780E0CDDFBADFDDDF0E
:100250008033910511F480E090E0DF91CF91089513
:10026000CF93C82FB79B08C080E0B1DF000080E0CB
:10027000BADF8C2FCF91D9CF85E390E0CF9108954D
:10028000811102C0A4DF01C09CDF9EDF000080E07E
:10029000AACFCF93DF93D62F94DFC8E095DF9CDF02
:1002A00080E0A1DFC150D1F78D2FEADF80E090E040
:1002B000DF91CF9108952F923F924F925F926F926C
:1002C0007F928F929F92AF92BF92CF92DF92EF92E6
:1002D000FF920F931F93CF93DF93CDB7DEB76B974A
:1002E0000FB6F894DEBF0FBECDBF98878F836987A6
:1002F000DC0112968C9112972AE0622F84D45C0163
:1003000011968C9111977FD4582F492F8C917BD4C3
:10031000FC018091B0009091B1009F8B8E8B3C01CD
:100320007C0163014301B3018C019E838D831B011A
:100330002301D3019C838B8320E030E0852F90E064
:100340009B878A87842F90E09D878C87C301885B79
:100350009F4F998F888F01969B8F8A8FA301465B51
:100360005F4F8A2D90E09F878E878B2D90E0998B31
:10037000888B8E2F90E09B8B8A8B8F2F90E09D8BAC
:100380008C8BBB24B394E985E11106C0B12CEF81BD
:10039000F885818181113CC0A22E8E859F85022E19
:1003A00002C0959587950A94E2F780FF0FC0E88D0B
:1003B000F98D9081F7019083EA8DFB8D9081F70193
:1003C0009283FA019081F701918304C0F3011082B6
:1003D000128211828889998902C095958795AA947D
:1003E000E2F780FF0FC0E88DF98D8081F4018383EF
:1003F000EA8DFB8D8081F4018583FA018081F4010F
:10040000848304C0F601138215821482B11005C0E2
:10041000EF81F885808181113BC0822FAA84BB8443
:10042000022E02C0B594A7940A94E2F7A0FE0FC072
:10043000E88DF98D9081F8019683EA8DFB8D90818E
:10044000F8019087FA019081F801978304C0FB01BD
:10045000168210861782EC85FD8502C0F595E7951A
:100460008A95E2F7E0FF0FC0E88DF98D8081F101F8
:100470008187EA8DFB8D8081F1018387FA0180817C
:10048000F101828705C0ED81FE81118613861286F7
:10049000822FAA88BB88022E02C0B594A7940A9422
:1004A000E2F7A0FE12C0E88DF98D90811C969C9316
:1004B0001C97EA8DFB8D90811E969C931E97FA01E6
:1004C00090811D969C931D9704C0F2011486168698
:1004D0001586EC89FD8902C0F595E7958A95E2F7C6
:1004E000E0FF12C0E88DF98D8081EE89FF89878752
:1004F000EA8DFB8D8081EE89FF89818BFA018081F5
:10050000EE89FF89808B05C0EB81FC811786118AFB
:10051000108A2F5F3F4F8E899F8942969F8B8E8BCB
:10052000EB81FC817296FC83EB835296F2E14F0ED5
:10053000511C82E1280E311CED81FE817296FE83F2
:10054000ED830E5E1F4F6E5E7F4FF2E18F0E911CAA
:1005500082E1C80ED11C92E1E90EF11CE2E16E0EBF
:10056000711C2430310509F00CCF6B960FB6F8944E
:10057000DEBF0FBECDBFDF91CF911F910F91FF90D6
:10058000EF90DF90CF90BF90AF909F908F907F9033
:100590006F905F904F903F902F900895682F8091BB
:1005A000B0009091B1003AC04091B0005091B100BC
:1005B00020E030E080E090E0FA01E80FF91F1082BF
:1005C00011821282039682319105B1F72F5F3F4F5E
:1005D0004E5E5F4F2430310569F7089581E690E063
:1005E0009093B1008093B0000ED0DECF2091B00088
:1005F0003091B100F901E85BFF4F80833196408371
:10060000319660830895FC01E45BFF4F10823196C0
:100610001082319610828FEF88BB0895AF92BF92FF
:10062000CF92DF92EF92FF920F931F93CF93DF93BE
:100630009C018C01025B1F4FE8018881E82EAA24EF
:10064000A394B12C02C0AA0CBB1C8A95E2F76130BE
:1006500039F0F901E45BFF4F80818150860F808380
:10066000D901A35BBF4F8C9190E063E070E0BAD2F8
:10067000FC013296E20FF31F49E050E060E070E0C9
:10068000CF010297EC01288130E02A213B210E2C7A
:1006900002C0369527950A94E2F7042E02C0220F75
:1006A000331F0A94E2F70196EC01888190E08A21D9
:1006B0009B210E2C02C0969587950A94E2F76A0159
:1006C000DFEFCD1ADD0A02C0880F991FCA94E2F746
:1006D000282B392B808190E08A219B210E2C02C08F
:1006E000969587950A94E2F76A01C2E0CC0ED11C78
:1006F00002C0880F991FCA94E2F7282B392B622B6E
:10070000732B4350510972964D3FDFEF5D0709F09F
:10071000B7CF80E090E094989B01082E02C03695F8
:1007200027950A94E2F720FF02C0939A01C093989C
:10073000949A01968C30910571F7959A969A9698AD
:100740008C91811102C0C69A0CC028B33FEF380FBC
:1007500081E090E0032E01C0880F0A94EAF7282B6D
:1007600028BB2C91253061F038B381E090E0022E57
:1007700001C0880F0A94EAF78095832388BB01C0E3
:10078000C69895988C91853018F48F5F8C9309C02A
:100790001C92F8018081843018F48F5F808301C03F
:1007A0001082DF91CF911F910F91FF90EF90DF901A
:1007B000CF90BF90AF900895CF93DF9300D000D03B
:1007C0001F92CDB7DEB7198281E08A8382E08B83E6
:1007D0003DDC04DF43E063E083E008DFCE01059603
:1007E00044D160E875E280E090E0A2D13ADCBE013D
:1007F0006C5F7F4FCE010196DAD02DE248E265E1D1
:10080000CE0101965BD08C818823E9F08C8199819F
:10081000890F89838C3390F08C5389838A8191E08E
:10082000980F9A839C3350F08B538A838B8191E08D
:10083000980F9B83983110F087518B831C8261E065
:10084000CE01019638DD8D818823E9F28D81A6DE07
:100850001D8261E0CE0101962EDDD5CFFC017583AE
:100860006483842F90E00197860F971F9783868378
:100870007183608373836283128611864087089533
:10088000FC01928580859817B1F0A081B1816C93AD
:1008900082858F5F8287808191812681378182174F
:1008A000930719F48481958101C001969183808317
:1008B00080E090E0089583E190E00895DF92EF9268
:1008C000FF920F931F93CF93DF9300D01F92CDB76A
:1008D000DEB78C01D62EE42EF22E3AE0822F632F63
:1008E00092D1582F5295507F592B5983842F8BD1F9
:1008F000582F5295507F592B5A838D2D84D1382FE4
:100900003295307F392B3B8323E0AE014F5F5F4F41
:1009100060E088E6CCDB009721F4F801D282E18226
:10092000F0820F900F900F90DF91CF911F910F9158
:10093000FF90EF90DF9008950F931F93CF93DF9375
:1009400000D01F92CDB7DEB78C0123E0AE014F5F20
:100950005F4F60E088E6E0DB9C010097F9F4998145
:10096000892F807782958F706AE033D19F70980FBE
:10097000F80190839A81892F807782958F706AE041
:1009800028D19F70980F91839B81892F80738295C6
:100990008F706AE01ED19F70980F9283C9010F90EB
:1009A0000F900F90DF91CF911F910F910895CF93EA
:1009B000DF93EC017093B3006093B2008BB7886053
:1009C0008BBF82E084B940E46EE088E64BDB0097A1
:1009D00021F4CE01DF91CF91AFCFDF91CF91089578
:1009E0001F920F920FB60F9211248F93EF93FF93E4
:1009F000C99B07C0E091B200F091B30080818F5F86
:100A00008083FF91EF918F910F900FBE0F901F90F9
:100A10001895E091B400F091B5009483838382E04F
:100A200080BF83BF8DEA86BF12BE89B7816089BF50
:100A3000E091B400F091B50081E0828308958AE0EE
:100A40008EBD87EE93E09BBD8ABD1DBC1CBC89B7E3
:100A5000806489BFE091B400F091B50015821682E0
:100A60001782108681E080830895E6EBF0E0F09332
:100A7000B500E093B40010821092B8001092BA0052
:100A80001092B9001092BB001092BC001092BD00F1
:100A90001092BE00BEDFD3CF1F920F920FB60F92FF
:100AA00011248F939F93AF93BF93EF93FF93F89489
:100AB0001DBC1CBC87EE93E09BBD8ABDE091B400D9
:100AC000F091B50085819681A781B0850196A11D21
:100AD000B11D85839683A783B0877894FF91EF91AA
:100AE000BF91AF919F918F910F900FBE0F901F906C
:100AF00018951F920F920FB60F9211248F93EF93B8
:100B0000FF93F89412BE8DEA86BFE091B400F09195
:100B1000B5000380F481E02D80818F5F808378941D
:100B2000FF91EF918F910F900FBE0F901F9018952E
:100B300000C0CF92DF92EF92FF926B017C0181EDBA
:100B400090E09093D0008093CF0040E16FEB70E095
:100B500085DE60E271EA87E090E0A70196015FD050
:100B60002150310932B929B986E083B988E98AB9B7
:100B7000FF90EF90DF90CF9008951F920F920FB6E5
:100B80000F9211242F933F934F935F936F937F9313
:100B90008F939F93AF93BF93EF93FF93F8946CB1B0
:100BA000609360008091CF009091D00069DE7894CE
:100BB000FF91EF91BF91AF919F918F917F916F9135
:100BC0005F914F913F912F910F900FBE0F901F900B
:100BD0001895002480FD060E660F11F08695D1F75A
:100BE000802D08950024552704C0080E591F880F32
:100BF000991F009729F076956795B8F37105B9F7B5
:100C0000802D952F0895991B79E004C0991F9617A0
:100C100008F0961B881F7A95C9F780950895A1E280
:100C20001A2EAA1BBB1BFD010DC0AA1FBB1FEE1F66
:100C3000FF1FA217B307E407F50720F0A21BB30BB1
:100C4000E40BF50B661F771F881F991F1A9469F72D
:100C500060957095809590959B01AC01BD01CF0189
:060C60000895F894FFCF97
:00000001FF
