:1000000014C023C022C021C0FCC11FC01EC01BC31E
:100010001CC01BC01AC019C018C020C216C015C011
:1000200014C013C012C088C110C011241FBECFE578
:10003000D1E0DEBFCDBF20E0A0E6B0E001C01D9260
:10004000AF38B207E1F7BBD071C3DACF81E08ABB2A
:100050008FEF88BB8FE587BB8EEF81BB82E084B9D1
:100060008BB788608BBF789480E090E0089563C080
:10007000EF92FF921F93CF93DF931F92CDB7DEB71E
:10008000142F880F698384D069818033910579F4B6
:10009000862F76D07C01009719F044D0C70107C0A5
:1000A000812F6ED0F82E192F3DD08F2D912F0F90CC
:1000B000DF91CF911F91FF90EF900895AF92BF9283
:1000C000DF92EF92FF920F931F93CF93DF931F92D4
:1000D000CDB7DEB7F42ED52EE22E880F816069836E
:1000E00057D06981009799F4862F4AD05C010F2D73
:1000F0001D2D802F8F198E1540F4C80150D05C0142
:10010000009719F40F5F1F4FF4CF0CD0C5010F906B
:10011000DF91CF911F910F91FF90EF90DF90BF90F3
:10012000AF9008958FEF8FB980E090E0089588B385
:10013000805888BB0895CF938FEF8FB988E28DB92F
:100140008AE000008150E9F7C5E0B79906C0EFDF0B
:10015000C150D9F784E390E002C080E090E0CF91F5
:100160000895CF93DF93E3DFB59903C0C0E3D0E0F8
:1001700002C0C1E3D0E0DBDFCE01DF91CF91089573
:100180008FB9779B02C07798ECCF86E390E0089513
:10019000B79B02C0F5DFE5CF85E390E008951F939C
:1001A000CF93DF93EC0117E0C2DFC1DF1150E1F71D
:1001B000D8DF2FB12883DF91CF911F910895CF937E
:1001C000DF9300D000D01F92CDB7DEB7198281E057
:1001D0008A8382E08B833ADFCE010596F2D060E815
:1001E00075E280E090E059D103D16B017C0100D130
:1001F0006C197D098E099F09683B7B40810591053B
:10020000B0F335DF009731F4BE016C5F7F4FCE0154
:1002100001967ED06C01E12CF12C21E030E041E030
:1002200050E0C701B6013BD161E070E08AE036D111
:1002300061E070E08DE032D1F0CFFC017583648322
:10024000842F90E00197860F971F97838683718391
:100250006083738362831286118640870895FC0150
:10026000928580859817B1F0A081B1816C938285C9
:100270008F5F8287808191812681378182179307E2
:1002800019F48481958101C001969183808380E077
:1002900090E0089583E190E008950F931F93CF932A
:1002A000DF9300D01F92CDB7DEB78C0123E0AE0103
:1002B0004F5F5F4F60E088E601DF9C010097F9F433
:1002C0009981892F807782958F706AE0E8D19F703D
:1002D000980FF80190839A81892F807782958F708B
:1002E0006AE0DDD19F70980F91839B81892F807385
:1002F00082958F706AE0D3D19F70980F9283C90165
:100300000F900F900F90DF91CF911F910F91089553
:10031000CF93DF93EC01709362006093610040E43F
:100320006EE088E6A5DE009721F4CE01DF91CF9143
:10033000B4CFDF91CF9108951F920F920FB60F9215
:1003400011248F93EF93FF93D99B07C0E091610035
:10035000F091620080818F5F8083FF91EF918F9198
:100360000F900FBE0F901F901895E0916300F091D1
:1003700064009483838382E080BF83BF8DEA86BF5D
:1003800012BE89B7816089BFE0916300F09164007B
:1003900081E0828308958AE08EBD87EE93E09BBD65
:1003A0008ABD1DBC1CBC89B7806489BFE091630015
:1003B000F0916400158216821782108681E0808396
:1003C0000895E5E6F0E0F0936400E09363001082A6
:1003D00010926700109269001092680010926A00F3
:1003E00010926B0010926C0010926D00BEDFD3CFA4
:1003F000E0916300F091640065817681878190854A
:1004000008951F920F920FB60F9211248F939F930E
:10041000AF93BF93EF93FF93F8941DBC1CBC87EE82
:1004200093E09BBD8ABDE0916300F09164008581FB
:100430009681A781B0850196A11DB11D8583968304
:10044000A783B0877894FF91EF91BF91AF919F916F
:100450008F910F900FBE0F901F9018951F920F92C3
:100460000FB60F9211248F93EF93FF93F89412BE5F
:100470008DEA86BFE0916300F09164000380F4810F
:10048000E02D80818F5F80837894FF91EF918F9131
:100490000F900FBE0F901F901895A8C0CBC03F9231
:1004A0004F925F926F927F928F929F92AF92BF9284
:1004B000CF92DF92EF92FF920F931F93CF93DF9330
:1004C000CDB7DEB72C970FB6F894DEBF0FBECDBF09
:1004D0006B017C015A0149018E010F5F1F4FFE0124
:1004E0003B961292E017F107E1F7F7FE0BC0B5015A
:1004F0008DE2A0D0F094E094D094C094C11CD11CA3
:10050000E11CF11C81E08816910431F4B50180E30F
:1005100091D0B50188E78ED0312C9AE0492E512C2C
:10052000612C712C232D332727FD30958AE0C816C6
:10053000D104E104F1047CF18114910489F4F801FF
:10054000E20FF31FFC87EB87C701B601A3019201FD
:10055000D1D0605DEB85FC85608369017A0116C0AE
:10056000D701C6018F709927AA27BB27F801E20F90
:10057000F31F8A3010F4805D01C08B5B808384E0C0
:10058000F594E794D794C7948A95D1F7F9E0F315D9
:100590004CF23394C7CF80E38C0DF801E20FF31FC8
:1005A0008083FE013B967F01F70182917F018823C2
:1005B00011F0B5013FD0E016F106B1F72C960FB659
:1005C000F894DEBF0FBECDBFDF91CF911F910F9189
:1005D000FF90EF90DF90CF90BF90AF909F908F9063
:1005E0007F906F905F904F903F900895CF92DF92F1
:1005F000EF92FF926B017C0184E890E0909383007E
:100600008093820040E162E770E017DE60E271EA09
:1006100087E090E0A70196014BD02150310932B913
:1006200029B986E083B988E98AB9FF90EF90DF9015
:10063000CF9008955D9BFECF8CB96130710511F4A8
:100640005D9BFECF08951F920F920FB60F9211245B
:100650002F933F934F935F936F937F938F939F93CA
:10066000AF93BF93EF93FF93F8946CB160936000E6
:100670008091820090918300F2DD7894FF91EF9158
:10068000BF91AF919F918F917F916F915F914F91AA
:100690003F912F910F900FBE0F901F90189500243F
:1006A00080FD060E660F11F08695D1F7802D089516
:1006B000A1E21A2EAA1BBB1BFD010DC0AA1FBB1F66
:1006C000EE1FFF1FA217B307E407F50720F0A21BD8
:1006D000B30BE40BF50B661F771F881F991F1A9445
:1006E00069F760957095809590959B01AC01BD016F
:1006F000CF010895052E97FB16F400940FD057FDF7
:1007000005D0D6DF07FC02D046F408C050954095CE
:10071000309521953F4F4F4F5F4F089590958095AD
:10072000709561957F4F8F4F9F4F0895F894FFCF3D
:00000001FF
