:1000000014C023C022C021C059C21FC01EC0E9C3F2
:100010001CC01BC01AC019C018C095C216C015C09C
:1000200014C013C012C07AC110C011241FBECFE586
:10003000D1E0DEBFCDBF20E0A0E6B0E001C01D9260
:10004000AF38B207E1F725D028C4DACFCF93DF93DA
:10005000CDB7DEB788E390E020EAFC0120838AE395
:1000600090E021E0FC01208388E390E02FEFFC0189
:10007000208387E390E02FEFFC01208381E390E071
:100080002EEFFC012083789480E090E0DF91CF9107
:100090000895CF93DF93CDB7DEB72A970FB6F894C4
:1000A000DEBF0FBECDBF19821A821B821C82198649
:1000B00081E090E09E838D83C9DFCE010A9663D1F3
:1000C00060E875E280E090E07AD2CDD2813091058F
:1000D00061F4CE01099660E070E09DD298878F832D
:1000E000898561E070E083D2F0CFEFCFCF93DF93CB
:1000F00000D000D01F92CDB7DEB79A8389837C836E
:100100006B834D8389819A812B813C81FC013583EE
:1001100024838D81882F90E001972B813C81280FCB
:10012000391F89819A81FC013783268389819A81CD
:10013000FC012481358189819A81FC0131832083EE
:1001400089819A81FC012481358189819A81FC0110
:100150003383228389819A81FC01128689819A8165
:10016000FC01118689819A812D81FC0120870F90E5
:100170000F900F900F900F90DF91CF910895CF9334
:10018000DF9300D000D0CDB7DEB79A8389837C831C
:100190006B8389819A81FC018285882319F482E12D
:1001A00090E049C089819A81FC01228589819A81E8
:1001B000FC018085821718F481E190E03CC08981C0
:1001C0009A81FC0182819381FC0120818B819C8139
:1001D000FC01208389819A81FC0182852FEF280F01
:1001E00089819A81FC01228789819A81FC0122817F
:1001F000338189819A81FC0186819781281739078B
:1002000059F489819A81FC012481358189819A81FF
:10021000FC01338322830DC089819A81FC01828194
:1002200093819C012F5F3F4F89819A81FC01338329
:10023000228380E090E00F900F900F900F90DF915D
:10024000CF910895CF93DF9300D01F92CDB7DEB743
:100250009A8389836B8389819A81FC0122858981B4
:100260009A81FC018085281719F483E190E039C058
:1002700089819A81FC01808191812B81FC012083FD
:1002800089819A81FC01828521E0280F89819A81E8
:10029000FC01228789819A81FC0120813181898139
:1002A0009A81FC01868197812817390759F4898141
:1002B0009A81FC012481358189819A81FC013183F5
:1002C00020830DC089819A81FC01808191819C01EC
:1002D0002F5F3F4F89819A81FC013183208380E029
:1002E00090E00F900F900F90DF91CF910895CF93F2
:1002F000DF9300D0CDB7DEB79A83898389819A8155
:10030000FC018285882319F081E090E002C080E042
:1003100090E00F900F90DF91CF9108951F920F9270
:1003200000905F000F9211242F933F938F939F9320
:10033000EF93FF93CF93DF93CDB7DEB78BE390E0DE
:10034000FC018081882F90E082709927009769F0E6
:100350008091610090916200209161003091620073
:10036000F90120812F5FFC012083DF91CF91FF9164
:10037000EF919F918F913F912F910F9000925F008D
:100380000F901F901895CF93DF9300D0CDB7DEB7B5
:100390009A83898385E690E090936400809363005C
:1003A0008091630090916400FC0110828091630051
:1003B00090916400FC01128280916300909164002E
:1003C000FC01148213828091630090916400FC010F
:1003D000158216821782108689819A8106D03DD0B7
:1003E0000F900F90DF91CF910895CF93DF9300D0BE
:1003F000CDB7DEB79A8389838091630090916400C2
:1004000029813A81FC013483238380E590E022E056
:10041000FC01208383E590E022E0FC01208386E557
:1004200090E02DEAFC01208382E590E0FC0110823F
:1004300089E590E029E530E0F90120812160FC01A7
:100440002083809163009091640021E0FC0122836D
:100450000F900F90DF91CF910895CF93DF93CDB799
:10046000DEB78EE490E02AE0FC0120838AE490E08D
:1004700027EE33E0FC01318320838CE490E0FC0123
:100480001182108289E590E029E530E0F9012081B0
:100490002064FC0120838091630090916400FC0142
:1004A00015821682178210868091630090916400F5
:1004B00021E0FC012083DF91CF9108951F920F92DC
:1004C00000905F000F9211242F933F938F939F937F
:1004D000AF93BF93EF93FF93CF93DF93CDB7DEB787
:1004E000F8948CE490E0FC01118210828AE490E0A0
:1004F00027EE33E0FC0131832083209163003091AB
:1005000064008091630090916400FC018581968174
:10051000A781B0850196A11DB11DF9018583968340
:10052000A783B0877894DF91CF91FF91EF91BF912E
:10053000AF919F918F913F912F910F9000925F000B
:100540000F901F9018951F920F9200905F000F92CE
:1005500011242F933F938F939F93EF93FF93CF9308
:10056000DF93CDB7DEB7F89482E590E0FC0110820E
:1005700086E590E02DEAFC01208380916300909154
:100580006400FC01838194812091630030916400B8
:10059000F90123813481F90120812F5FFC0120833F
:1005A0007894DF91CF91FF91EF919F918F913F913F
:1005B0002F910F9000925F000F901F901895CF938E
:1005C000DF9300D000D0CDB7DEB769837A838B8309
:1005D0009C8389819A81AB81BC81BC01CD014BD0C8
:1005E0000F900F900F900F90DF91CF910895CF93C0
:1005F000DF9300D01F92CDB7DEB789837B836A83F8
:100600008A819B81BC01898182D00F900F900F90CD
:10061000DF91CF910895CF93DF9300D000D000D029
:10062000CDB7DEB79C838B837E836D8381E090E0C2
:100630009A8389838B819C818BD09A8389838D81D6
:100640009E818130910521F489819A81009791F7EB
:1006500089819A8126960FB6F894DEBF0FBECDBF72
:10066000DF91CF910895CF93DF93CDB7DEB797D0C9
:10067000DF91CF910895CF93DF93CDB7DEB72A975F
:100680000FB6F894DEBF0FBECDBF6B837C838D8326
:100690009E8384E890E09093830080938200809111
:1006A00082009091830040E162E770E01FDD80E20C
:1006B00091EAA7E0B0E02B813C814D815E81BC01D5
:1006C000CD01C9D0DA01C90101979A83898382E2F9
:1006D00090E029813A81232F3327FC01208389E28E
:1006E00090E02981FC01208383E290E026E0FC0178
:1006F00020838AE290E028E9FC0120832A960FB645
:10070000F894DEBF0FBECDBFDF91CF910895CF9398
:10071000DF9300D01F92CDB7DEB789837B836A83D6
:10072000000049D00097E9F38CE290E02981FC01B8
:1007300020838A819B818130910521F400003BD088
:100740000097E9F30F900F900F90DF91CF910895EC
:10075000CF93DF9300D000D0CDB7DEB79C838B83DF
:100760008091820090918300C2DD009779F0F89427
:1007700080918200909183002B813C81B901FFDC44
:100780009A838983789489819A8102C081E290E07A
:100790000F900F900F900F90DF91CF910895CF930E
:1007A000DF93CDB7DEB780918200909183009FDD0B
:1007B000DF91CF910895CF93DF93CDB7DEB78BE272
:1007C00090E0FC018081882F90E08072992700974B
:1007D00019F480E090E002C081E090E0DF91CF91D9
:1007E00008951F920F9200905F000F9211242F9393
:1007F0003F934F935F936F937F938F939F93AF93A9
:10080000BF93EF93FF93CF93DF93CDB7DEB7F89409
:100810008CE290E0FC018081809360002091600078
:100820008091820090918300622F0CDD7894DF919B
:10083000CF91FF91EF91BF91AF919F918F917F9158
:100840006F915F914F913F912F910F9000925F00B8
:100850000F901F901895A1E21A2EAA1BBB1BFD0139
:100860000DC0AA1FBB1FEE1FFF1FA217B307E4078F
:10087000F50720F0A21BB30BE40BF50B661F771FE7
:10088000881F991F1A9469F76095709580959095C7
:0E0890009B01AC01BD01CF010895F894FFCF8C
:00000001FF
