:1000000014C023C022C021C0CFC51FC01EC02CC435
:100010001CC01BC01AC019C018C0F1C516C015C03D
:1000200014C013C012C0E8C210C011241FBECFE517
:10003000D1E0DEBFCDBF20E0A0E6B0E001C01D9260
:10004000A23EB207E1F7ECD2CBC6DACF4F925F9275
:100050006F927F928F929F92BF92CF92DF92EF9298
:10006000FF920F931F93CF93DF93FC0182812AE0CD
:10007000622FAAD6682E892E8181A6D6182F092F25
:100080008081A2D6E92EE091B100F091B20050E05B
:1000900040E0712C2F0198E4490E511CEF01C75B21
:1000A000DF4F9F01265B3F4F912C612F70E010E0E6
:1000B00090E0F12CB42E6301042E02C0D594C794B5
:1000C0000A94E2F7C0FE73C0D201DC90D082D880DF
:1000D000D282D901DC90D18264010B2C02C0D5946C
:1000E000C7940A94E2F7C0FE66C0D201DC90D382C6
:1000F000D880D582D901DC90D4826B010B2C02C050
:10010000D594C7940A94E2F7C0FE59C0D201DC909E
:10011000D682D880D086D901DC90D78268010B2C9A
:1001200002C0D594C7940A94E2F7C0FE4CC0D20135
:10013000DC90D186D880D386D901DC90D2866C0140
:100140000B2C02C0D594C7940A94E2F7C0FE3FC0BE
:10015000D201DC90D486D880D686D901DC90D586B1
:10016000670102C0D594C794BA94E2F7C0FE33C0C9
:10017000D201DC90D786D880D18AD901DC90D08A90
:100180004F5F5F4F72964430510509F093CFDF9176
:10019000CF911F910F91FF90EF90DF90CF90BF9084
:1001A0009F908F907F906F905F904F9008951082F6
:1001B0001282118291CF1382158214829ECF1682F1
:1001C00010861782ABCF118613861286B8CF14869D
:1001D00016861586C5CF1786118A108AD1CF8091D1
:1001E000B1009091B20077C3CF93DF932091B1001B
:1001F0003091B200A82FB0E0C62FD0E0CE0163E06E
:1002000070E0D1D5FC01CD0162E170E0CCD5E80F02
:10021000F91FE20FF31F10821282CE0163E070E03B
:10022000C2D5FC01CD0162E170E0BDD58E0F9F1FEC
:10023000280F391FF9011182DF91CF910895EF92B4
:10024000FF920F93CF93DF93A091B100B091B200D2
:10025000C82FD0E0E62EF12CC70163E070E0A3D5F3
:10026000FC01CE0162E170E09ED5E80FF91FEA0FB4
:10027000FB1F408322830183DF91CF910F91FF9079
:10028000EF9008958091B1009091B200AC01485B6D
:100290005F4FFC0130E020E01082118212822F5F5C
:1002A0003F4F339626303105B9F7429684179507AC
:1002B00081F7089583E690E09093B2008093B100B7
:1002C000FFD2E0CFCF93DF932091B1003091B20005
:1002D000E901C85BDF4FF901B0E0A0E08083428311
:1002E000618311963396A630B105C1F72E5E3F4F5C
:1002F0002C173D0781F7DF91CF9108952091B10030
:100300003091B200F901E85BFF4F8083D901A75B10
:10031000BF4F4C93265B3F4FD9016C93CF011BC558
:100320001ABA8FEF88BB8FE587BB8EEF81BB7894BD
:1003300090E080E00895E199FECFF8941CBA8EBB5E
:100340006DBBE29AE19A78940895E199FECFF89412
:100350008EBBE09A78948DB308958DC30F931F934D
:10036000CF93DF93062F142F880FBCD3EC01892B7A
:1003700031F4802F9CD3EC01892B39F081D3CE014D
:10038000DF91CF911F910F910895812F90D3EC01B0
:10039000F5CFEF92FF920F931F93CF93DF93182F18
:1003A000062F7A01880F9ED3EC01892B49F068D380
:1003B000CE01DF91CF911F910F91FF90EF900895A3
:1003C000802F75D3EC01892B91F75AD3812F880F99
:1003D000816088D3EC01892B51F761E0C7019BD381
:1003E000EC01E5CF8F929F92AF92BF92CF92DF92B6
:1003F000EF92FF920F931F93CF93DF93182F062F47
:100400006A01E22E880F6ED3EC01892B11F038D3EC
:1004100027C0802F4CD3EC01892BC9F731D3812F12
:10042000880F81605FD3EC01892B89F7F12C10E0F4
:1004300000E0570181E0A81AB108C601800F911FA2
:100440000E151F0521F360E0A016B10609F461E066
:1004500062D34C010F5F1F4F892B79F311D3E40155
:10046000CE01DF91CF911F910F91FF90EF90DF9020
:10047000CF90BF90AF909F908F900895CF92DF92D2
:10048000EF92FF920F931F93CF93DF93EC01D62E41
:10049000E42EF22E8AE0C82E822F6C2D95D4829500
:1004A000807F482F492B60E088E658DF8C018E2D35
:1004B0006C2D8AD48295807F482F492B61E088E695
:1004C0004DDF082B192B8D2D6C2D7ED48295807FCE
:1004D000482F492B62E088E641DF802B912B009763
:1004E00019F4DA82E982F882DF91CF911F910F919E
:1004F000FF90EF90DF90CF9008950F931F93CF93CD
:10050000DF9300D00F92CDB7DEB78C0123E0AE01B0
:100510004F5F5F4F60E088E665DFAC01892B71F5C6
:100520009981292F30E084E0359527958A95E1F768
:10053000822F87706AE02ED49F70980FF801908305
:100540009A81292F30E064E0359527956A95E1F787
:10055000822F87706AE01ED49F70980F91839B81D1
:10056000292F30E074E0359527957A95E1F7822FB1
:1005700083706AE00FD49F70980F9283CA010F9026
:100580000F900F90DF91CF911F910F9108950F93CE
:100590001F93CF93DF930F92CDB7DEB78C011982F3
:1005A0007093B4006093B3008BB788608BBF82E018
:1005B00084B940E46EE088E6D1DE0097A1F4AE0194
:1005C0004F5F5F4F6FE088E6E4DE898187FF11C0EF
:1005D0002AE24AE269E0C80151DF48E06FE088E6BC
:1005E000BDDE81E490E00F90DF91CF911F910F91DC
:1005F0000895C80182DFF7CF8F938FB78F93EF9362
:10060000FF93C99B07C0E091B300F091B4008081D3
:100610008F5F8083FF91EF918F918FBF8F9118959E
:10062000CDB7DEB729970FB6F894DEBF0FBECDBFAA
:1006300077DE40DECE010996A8D263D38EDEBE01FE
:10064000685F7F4FCE010596A2DFCE01019691D360
:100650004A816B81898152DECE010596F7DC10E07C
:1006600079D3863060F0111129C061E070E085EB2C
:1006700090E05ED38091B5008A3AD9F411E0888584
:10068000882389F0888518869D81890F8C3308F02E
:100690009AC08D838091600090916100892B19F43C
:1006A000CE010596D3DC89858823D1F2198697DDA2
:1006B000D7CF50D3182F8111D8CFE1CF4BD386306D
:1006C000E8F266E085EB90E020D3E091B500E051E0
:1006D00061E070E08FEFE73068F4F0E0EE50F94F42
:1006E00009948091600090916100019731F061E080
:1006F00070E08EEF09D310E0C2CF0091BA002091D4
:10070000B9004091B8006091B7008091B60097DDC4
:1007100061E070E082E4EECF809160009091610032
:10072000019729F76091B7008091B6005DDDF0CFA9
:1007300080916000909161000197C9F6A3DDE8CF38
:100740008091600090916100019789F64091B80016
:100750006091B7008091B600B5DDDACF809160007E
:1007600090916100892B19F62091B8004091B70053
:100770006091B600CE01059681DECACF80916000FF
:1007800090916100892B09F0B2CF4091B80060913F
:10079000B7008091B600B2DDBBCF8091B600811169
:1007A00008C01092610010926000CE0105964EDCE8
:1007B000AFCF813009F0ACCF81E090E09093610041
:1007C00080936000A5CF8C538D838E8191E0980F2C
:1007D0009C3310F49E835ECF8B538E838F8191E088
:1007E000980F983110F49F8355CF87518F8352CF44
:1007F000CF93DF93EC018DEC90E09093CC0080934D
:10080000CB0040E16BEB70E019D2D2B9C9B986E0F8
:1008100083B988E98AB9DF91CF9108955D9BFECFB6
:100820008CB96130710511F45D9BFECF0895CF93B3
:10083000DF93EC018091CB009091CC0055D2892BB5
:1008400059F0F894BE018091CB009091CC0009D270
:100850007894DF91CF91089581E290E0FACF809172
:10086000CB009091CC004AC21F920F920FB60F920C
:1008700011242F933F934F935F936F937F938F93A5
:100880009F93AF93BF93EF93FF93F8946CB16093F2
:1008900062008091CB009091CC0008D27894FF91B7
:1008A000EF91BF91AF919F918F917F916F915F91E8
:1008B0004F913F912F910F900FBE0F901F90189561
:1008C000FC01E45BFF4F1082835B9F4FFC011082B1
:1008D0008FEF88BB0895AF92BF92CF92DF92EF92D5
:1008E000FF920F931F93CF93DF93FC018C01035B67
:1008F0001F4FD8018C91E82EC1E0D0E002C0CC0F90
:10090000DD1F8A95E2F711978C9190E063E070E02B
:100910004AD2E80FF91F49E050E070E060E0228120
:1009200030E02C233D230E2C02C0369527950A94E7
:10093000E2F7CA01029602C0220F331F8A95E2F73E
:10094000808190E08C239D230E2C02C09695879584
:100950000A94E2F7042E02C0880F991F0A94E2F766
:10096000282B392B818190E08C239D235C010E2C58
:1009700002C0B694A7940A94E2F76A018FEFC81AEE
:10098000D80AC50102C0880F991FCA94E2F7282B24
:10099000392B622B732B7296435051094D3F8FEFC9
:1009A000580709F0BCCF90E080E094989B01082E96
:1009B00002C0369527950A94E2F720FF2BC0939A40
:1009C000949A01968C30910581F7959A969A96980B
:1009D0008C91811121C0C69A2C91253061F138B3D8
:1009E00081E090E001C0880F2A95EAF78095832383
:1009F00088BB95988C91853000F58F5F8C93DF9143
:100A0000CF911F910F91FF90EF90DF90CF90BF900B
:100A1000AF9008959398D4CF28B38150990B41E0BB
:100A200050E0FA0102C0EE0FFF1F8A95E2F7CF01F6
:100A3000822B88BBD1CFC698DCCF1C92D8018C9179
:100A40008430D8F2F8011082DACFC59ABD980895A3
:100A5000C79ABF9808958111F8CFC598BD9A089597
:100A6000BD9886B385FB882780F908958111F0CF62
:100A7000C798BF9A0895ECDFE8DF90E080E0089522
:100A800080E0E9DFE5DF0000E0DF90E080E008954E
:100A9000CF93DEDF0000E4DFC82F80E0E7DF81E3F3
:100AA00090E0C11102C080E390E0CF910895CF9310
:100AB000DF93D82FC8E080E0D9DF8D2F881F8827EB
:100AC000881FC9DFC5DFDD0FC150A9F780E0CEDF89
:100AD000BCDFDEDF8033910511F490E080E0DF9130
:100AE000CF910895CF93C82FB79B08C080E0B3DFA4
:100AF000000080E0BBDF8C2FCF91D9CF85E390E061
:100B0000CF910895811105C0A6DFA2DF000080E02B
:100B1000ADCF9BDFFACFEF92FF920F931F93CF934E
:100B2000DF937C01062FC7E0D0E010E091DF98DF73
:100B30000C2E01C0880F0A94EAF7182B80E096DF8C
:100B40002197A0F7802FDEDFF701108390E080E08F
:100B5000DF91CF911F910F91FF90EF900895E09159
:100B6000D800F091D9009383828382E080BF83BF55
:100B70008DEA86BF12BE89B7816089BFE091D80037
:100B8000F091D90081E081830895EAEDF0E0F093DF
:100B9000D900E093D800108211821382128214824D
:100BA000158216821782DBCF1F921FB61F92112467
:100BB0008F939F93AF93BF93EF93FF93E091D800F0
:100BC000F091D90084819581A681B7810196A11DFC
:100BD000B11D84839583A683B783F8941DBC1CBC88
:100BE00087EE93E09BBD8ABD7894FF91EF91BF9112
:100BF000AF919F918F911F901FBE1F9018950F92DC
:100C00000FB60F921F9211248F93EF93FF93E091F1
:100C1000D800F091D9000280F381E02D80818F5FB0
:100C20008083F89412BE8DEA86BF7894FF91EF918D
:100C30008F911F900F900FBE0F901895FC01758338
:100C40006483242F2150330BC901860F971F97838C
:100C500086837183608373836283128611864087E3
:100C60000895FC0182858823D9F090859817D8F0E3
:100C7000A281B3818C91DB018C9382858150828724
:100C800082819381268137818217930739F4848189
:100C900095819383828390E080E008950196F9CF57
:100CA00082E190E0089581E190E00895FC01928551
:100CB00080859817B1F0A081B1816C9382858F5F98
:100CC000828780819181268137818217930739F449
:100CD000848195819183808390E080E008950196DE
:100CE000F9CF83E190E0089521E030E0FC018285B6
:100CF000811102C030E020E0C9010895FC01828525
:100D0000089581E090E074CD89CD0F931F93CF9328
:100D10008C01C62FC11104C0CF911F910F9108956E
:100D2000C80185DD892BB1F70F5F1F4FC150F2CF8E
:100D30000F931F93CF93DF93EC018B01CE0177DDEF
:100D40000130110511F40097C9F7DF91CF911F9180
:100D50000F91089584CDCF93DF93EC01688180E0FB
:100D6000EADA698181E0E7DA6A8182E0DF91CF9196
:100D7000E2CACF93DF93EC0180E0E7DA888381E079
:100D8000E4DA898382E0E1DA8A8390E080E0DF912F
:100D9000CF910895002480FD060E660F11F0869510
:100DA000D1F7802D08950024552704C0080E591F3F
:100DB000880F991F009729F076956795B8F371050C
:100DC000B9F7802D952F0895991B79E004C0991FDC
:100DD000961708F0961B881F7A95C9F78095089595
:100DE000F894FFCF7ECC98CCA3CCAACCB7CCC6CC01
:020DF000D4CC61
:00000001FF
