:100000001BC02AC029C028C0BCC626C025C06CC7DA
:1000100023C022C021C020C01FC0E0C61DC01CC01C
:100020001BC01AC019C068C617C0B2C4C7C4DAC49E
:10003000E4C4F5C408C519C511241FBECFE5D1E03D
:10004000DEBFCDBF20E0A0E6B0E001C01D92AA3F18
:10005000B207E1F767D4BCC7D3CF1ABA8FEF88BB1A
:100060008FE587BB8EEF81BB789480E090E00895A8
:10007000C5C0EF92FF921F93CF93DF931F92CDB72E
:10008000DEB7142F880F6983F1D06981009779F466
:10009000862FD1D07C01009719F0B5D0C70107C0D9
:1000A000812FC9D0F82E192FAED08F2D912F0F9000
:1000B000DF91CF911F91FF90EF900895CF92DF9243
:1000C000FF920F931F93CF93DF931F92CDB7DEB7AD
:1000D0008A01F22E880F6983C9D069810097D1F413
:1000E000862FA9D06C01009711F4680104C08BD051
:1000F000C60110C0FA94FF2051F0D6018D916D0118
:100100009AD08C010097B1F37ED0C80103C07BD098
:1001100080E090E00F90DF91CF911F910F91FF90C1
:10012000DF90CF9008958F929F92BF92CF92DF92EF
:10013000EF92FF920F931F93CF93DF931F92CDB750
:10014000DEB7182F6A01B22E880F69838FD07C0129
:100150006981009729F4862F6ED07C01009719F0F1
:1001600052D0C70128C04FD0812F880F81607ED028
:100170008C010097C1F4812C912CEB2CF12C21E007
:10018000E21AF108C601880D991D8B1488F48E14AB
:100190009F0461F060E083D08C018FEF881A980A89
:1001A0000115110579F32FD0C80105C061E0F3CF27
:1001B0002AD080E090E00F90DF91CF911F910F91B6
:1001C000FF90EF90DF90CF90BF909F908F90089519
:1001D000C59ABD980895C79ABF9808958111F8CF20
:1001E000C598BD9A0895BD9886B385FB882780F988
:1001F00008958111F0CFC798BF9A0895ECDFE8DF2A
:1002000080E090E0089580E0E9DFE5DF0000E0DFD6
:1002100080E090E00895CF93DEDF0000E4DFC82F98
:1002200080E0E7DFC11103C080E390E002C081E31A
:1002300090E0CF910895CF93DF93D82FC8E080E06E
:10024000D8DF8D2F881F8827881FC8DFC4DFDD0F08
:10025000C150A9F780E0CDDFBBDFDDDF8033910542
:1002600011F480E090E0DF91CF910895CF93C82FF3
:10027000B79B08C080E0B2DF000080E0BADF8C2FBF
:10028000CF91D9CF85E390E0CF910895811102C03D
:10029000A5DF01C09DDF9FDF000080E0AACFCF92E5
:1002A000DF92FF920F931F93CF93DF931F92CDB7EF
:1002B000DEB78C0187E0C82ED12CF12C69838BDF4F
:1002C00092DF282F0C2C01C0220F0A94EAF7F22AA1
:1002D00080E08FDF81E0C81AD1086981EFEFCE1688
:1002E000DE0661F7862FD2DFF801F08280E090E031
:1002F0000F90DF91CF911F910F91FF90DF90CF90E2
:1003000008952F923F924F925F926F927F928F92B9
:100310009F92AF92BF92CF92DF92EF92FF920F9394
:100320001F93CF93DF93CDB7DEB76B970FB6F894DB
:10033000DEBF0FBECDBF98878F836987DC01129621
:100340008C9112972AE0622F15D65C0111968C9140
:10035000119710D6582F492F8C910CD6FC01809103
:10036000B2009091B3009F8B8E8B3C017C016301A6
:100370004301B3018C019E838D831B012301D301B3
:100380009C838B8320E030E0852F90E09B878A87D9
:10039000842F90E09D878C87C301885B9F4F998F46
:1003A000888F01969B8F8A8FA301465B5F4F8A2DB2
:1003B00090E09F878E878B2D90E0998B888B8E2F76
:1003C00090E09B8B8A8B8F2F90E09D8B8C8BBB2436
:1003D000B394E985E11106C0B12CEF81F8858181E4
:1003E00081113CC0A22E8E859F85022E02C095955C
:1003F00087950A94E2F780FF0FC0E88DF98D908110
:10040000F7019083EA8DFB8D9081F7019283FA01C9
:100410009081F701918304C0F3011082128211824E
:100420008889998902C095958795AA94E2F780FFFB
:100430000FC0E88DF98D8081F4018383EA8DFB8DF7
:100440008081F4018583FA018081F401848304C0F2
:10045000F601138215821482B11005C0EF81F88570
:10046000808181113BC0822FAA84BB84022E02C0EE
:10047000B594A7940A94E2F7A0FE0FC0E88DF98D19
:100480009081F8019683EA8DFB8D9081F801908729
:10049000FA019081F801978304C0FB01168210864F
:1004A0001782EC85FD8502C0F595E7958A95E2F700
:1004B000E0FF0FC0E88DF98D8081F1018187EA8D21
:1004C000FB8D8081F1018387FA018081F1018287B0
:1004D00005C0ED81FE81118613861286822FAA88BF
:1004E000BB88022E02C0B594A7940A94E2F7A0FE3E
:1004F00012C0E88DF98D90811C969C931C97EA8D13
:10050000FB8D90811E969C931E97FA0190811D96FB
:100510009C931D9704C0F201148616861586EC89FB
:10052000FD8902C0F595E7958A95E2F7E0FF12C0D4
:10053000E88DF98D8081EE89FF898787EA8DFB8DB3
:100540008081EE89FF89818BFA018081EE89FF89A4
:10055000808B05C0EB81FC811786118A108A2F5F82
:100560003F4F8E899F8942969F8B8E8BEB81FC81BA
:100570007296FC83EB835296F2E14F0E511C82E19E
:10058000280E311CED81FE817296FE83ED830E5E96
:100590001F4F6E5E7F4FF2E18F0E911C82E1C80EFD
:1005A000D11C92E1E90EF11CE2E16E0E711C2430C7
:1005B000310509F00CCF6B960FB6F894DEBF0FBE75
:1005C000CDBFDF91CF911F910F91FF90EF90DF9002
:1005D000CF90BF90AF909F908F907F906F905F90E3
:1005E0004F903F902F900895682F8091B200909186
:1005F000B300B1C0CF93DF932091B2003091B3002C
:10060000A82FB0E0C62FD0E0CE0163E070E0A1D407
:10061000FC01CD0162E170E09CD4E80FF91FE20F0C
:10062000F31F10821282CE0163E070E092D4FC01CD
:10063000CD0162E170E08DD4E80FF91FE20FF31FE6
:100640001182DF91CF910895EF92FF920F93CF9394
:10065000DF93A091B200B091B300C82FD0E0E62E96
:10066000F12CC70163E070E074D4FC01CE0162E1BB
:1006700070E06FD4E80FF91FEA0FFB1F408322835D
:10068000C70163E070E065D4FC01CE0162E170E077
:1006900060D4E80FF91FEA0FFB1F0183DF91CF91B0
:1006A0000F91FF90EF9008954091B2005091B300E8
:1006B00020E030E080E090E0FA01E80FF91F1082BE
:1006C00011821282039682319105B1F72F5F3F4F5D
:1006D0004E5E5F4F2430310569F7089583E690E060
:1006E0009093B3008093B2002BD0DECFCF93DF93F3
:1006F000A091B200B091B300E0E0F0E020E030E083
:10070000ED01C20FD31F88834A8369832D5F3F4F5A
:1007100022313105A9F731965296E430F10571F78F
:10072000DF91CF9108952091B2003091B300F9018B
:10073000E85BFF4F80833196408331966083089554
:10074000FC01E45BFF4F10823196108231961082DB
:100750008FEF88BB0895AF92BF92CF92DF92EF9256
:10076000FF920F931F93CF93DF939C018C01025B49
:100770001F4FE8018881E82EAA24A394B12C02C05F
:10078000AA0CBB1C8A95E2F7613039F0F901E45BF1
:10079000FF4F80818150860F8083D901A35BBF4FBB
:1007A0008C9190E063E070E0D4D3FC013296E20FCC
:1007B000F31F49E050E060E070E0CF010297EC01E8
:1007C000288130E02A213B210E2C02C03695279546
:1007D0000A94E2F7042E02C0220F331F0A94E2F7B4
:1007E0000196EC01888190E08A219B210E2C02C0A9
:1007F000969587950A94E2F76A01DFEFCD1ADD0A34
:1008000002C0880F991FCA94E2F7282B392B8081E8
:1008100090E08A219B210E2C02C0969587950A9420
:10082000E2F76A01C2E0CC0ED11C02C0880F991F0A
:10083000CA94E2F7282B392B622B732B43505109B2
:1008400072964D3FDFEF5D0709F0B7CF80E090E093
:1008500094989B01082E02C0369527950A94E2F7DA
:1008600020FF02C0939A01C09398949A01968C300D
:10087000910571F7959A969A96988C91811102C07C
:10088000C69A0CC028B33FEF380F81E090E0032EEA
:1008900001C0880F0A94EAF7282B28BB2C91253039
:1008A00061F038B381E090E0022E01C0880F0A9415
:1008B000EAF78095832388BB01C0C69895988C91F0
:1008C000853018F48F5F8C9309C01C92F8018081E9
:1008D000843018F48F5F808301C01082DF91CF9144
:1008E0001F910F91FF90EF90DF90CF90BF90AF904E
:1008F0000895FC018081680F60836C3390F06C5325
:100900006083818191E0980F91839C3350F08B53E9
:100910008183828191E0980F9283983110F0875102
:1009200082830895CF93DF9300D000D01F92CDB77C
:10093000DEB7198281E08A8382E08B838EDBCEDE94
:1009400041E061E081E0EFDECE01059604D260E98E
:1009500070ED83E090E061D28BDBBE016C5F7F4F76
:10096000CE010196B0D175D2863008F4A4C066E0FD
:1009700084EC90E054D28091C400482F50E0FA01FA
:100980007097E730F10508F08FC0EB5EFF4F0994D8
:100990008091600090916100019721F061E070E02A
:1009A00080E115C00091C9002091C8004091C700A6
:1009B0006091C6008091C50047DE6DC080916000E7
:1009C00090916100019741F061E070E081E126D2F1
:1009D00061E070E08EEF6EC06091C6008091C5004E
:1009E00009DE59C08091600090916100019709F47F
:1009F00051C061E070E082E1EACF809160009091A7
:100A00006100019721F061E070E083E1E0CF409167
:100A1000C7006091C6008091C50068DE3CC080912F
:100A2000600090916100892B21F061E070E084E129
:100A3000CECF2091C7004091C6006091C500CE0185
:100A40000196C8D028C08091600090916100892BE8
:100A500021F061E070E085E1BACF4091C70060917C
:100A6000C6008091C5005FDE16C08091C50081116F
:100A700009C0109261001092600061E0CE01019601
:100A800040DC09C0813039F481E090E0909361004E
:100A90008093600009DE61E070E08091C400BED107
:100AA00061E070E082E406C061E070E0B7D161E02F
:100AB00070E08FEFB3D1809160009091610000975A
:100AC00019F00197A9F04FCF8C81882349F06C81F0
:100AD000CE0101960EDF1C8261E0CE01019611DC91
:100AE0008D81882309F43FCF8D817EDD1D823BCF30
:100AF0008D81882319F08D8177DD1D828C8188237B
:100B000009F431CF6C81CE010196F3DE1C822BCF2C
:100B1000FC0175836483842F90E00197860F971FF3
:100B200097838683718360837383628312861186C1
:100B300040870895FC0182858823D9F09085981715
:100B4000D8F0A281B3818C91DB018C938285815096
:100B5000828782819381268137818217930719F4D6
:100B60008481958101C001969383828380E090E027
:100B7000089582E190E0089581E190E00895FC01FC
:100B8000928580859817B1F0A081B1816C938285A0
:100B90008F5F8287808191812681378182179307B9
:100BA00019F48481958101C001969183808380E04E
:100BB00090E0089583E190E0089521E030E0FC01A9
:100BC0008285811102C020E030E0C9010895FC0156
:100BD00082850895DF92EF92FF920F931F93CF9338
:100BE000DF9300D01F92CDB7DEB78C01D62EE42E56
:100BF000F22E3AE0822F632FBDD1582F5295507FAD
:100C0000592B5983842FB6D1582F5295507F592B89
:100C10005A838D2DAFD1382F3295307F392B3B83BE
:100C200023E0AE014F5F5F4F60E088E647DA009750
:100C300021F4F801D282E182F0820F900F900F90A0
:100C4000DF91CF911F910F91FF90EF90DF9008956A
:100C50000F931F93CF93DF9300D01F92CDB7DEB7D2
:100C60008C0123E0AE014F5F5F4F60E088E65BDA06
:100C70009C010097F9F49981892F807782958F7074
:100C80006AE05ED19F70980FF80190839A81892F56
:100C9000807782958F706AE053D19F70980F91830F
:100CA0009B81892F807382958F706AE049D19F70F4
:100CB000980F9283C9010F900F900F90DF91CF9101
:100CC0001F910F910895CF93DF93EC017093D100A2
:100CD0006093D0008BB788608BBF82E084B940E41A
:100CE0006EE088E6C6D9009721F4CE01DF91CF915E
:100CF000AFCFDF91CF9108951F920F920FB60F9251
:100D000011248F93EF93FF93C99B07C0E091D0000C
:100D1000F091D10080818F5F8083FF91EF918F915F
:100D20000F900FBE0F901F901895E091D200F09198
:100D3000D3009483838382E080BF83BF8DEA86BF24
:100D400012BE89B7816089BFE091D200F091D300D3
:100D500081E082830895E4EDF0E0F093D300E09326
:100D6000D20010821092D6001092D8001092D700B4
:100D70001092D9001092DA001092DB001092DC0081
:100D8000D4CF1F920F920FB60F9211248F939F937F
:100D9000AF93BF93EF93FF93F8941DBC1CBC87EEF9
:100DA00093E09BBD8ABDE091D200F091D300858194
:100DB0009681A781B0850196A11DB11D858396837B
:100DC000A783B0877894FF91EF91BF91AF919F91E6
:100DD0008F910F900FBE0F901F9018951F920F923A
:100DE0000FB60F9211248F93EF93FF93F89412BED6
:100DF0008DEA86BFE091D200F091D3000380F481A8
:100E0000E02D80818F5F80837894FF91EF918F91A7
:100E10000F900FBE0F901F9018951CC03FC00F93EE
:100E20001F93CF93DF931F92CDB7DEB78C0166235C
:100E300051F0C80169833BD06981892BC1F70F5FED
:100E40001F4F6150F4CF0F90DF91CF911F910F9101
:100E5000089545C0CF92DF92EF92FF926B017C0123
:100E60008FEE90E09093EE008093ED0040E16DED09
:100E700070E04EDE60E271EA87E090E0A701960143
:100E800085D02150310932B929B986E083B988E982
:100E90008AB9FF90EF90DF90CF9008955D9BFECFD1
:100EA0008CB96130710511F45D9BFECF0895CF932D
:100EB000DF93EC018091ED009091EE007EDE892BB6
:100EC00049F0F894BE018091ED009091EE0032DE81
:100ED000789402C081E290E0DF91CF9108958091F3
:100EE000ED009091EE0073CE1F920F920FB60F920D
:100EF00011242F933F934F935F936F937F938F931F
:100F00009F93AF93BF93EF93FF93F8946CB160936B
:100F100062008091ED009091EE0031DE7894FF91B7
:100F2000EF91BF91AF919F918F917F916F915F9161
:100F30004F913F912F910F900FBE0F901F901895DA
:100F4000002480FD060E660F11F08695D1F7802DE6
:100F500008950024552704C0080E591F880F991FB3
:100F6000009729F076956795B8F37105B9F7802D4C
:100F7000952F0895991B79E004C0991F961708F0E2
:100F8000961B881F7A95C9F780950895A1E21A2EBD
:100F9000AA1BBB1BFD010DC0AA1FBB1FEE1FFF1F1D
:100FA000A217B307E407F50720F0A21BB30BE40B6D
:100FB000F50B661F771F881F991F1A9469F76095B4
:100FC0007095809590959B01AC01BD01CF0108956E
:040FD000F894FFCFC3
:00000001FF
