:100000001BC02AC029C028C0D4C626C025C08BC7A3
:1000100023C022C021C020C01FC0F8C61DC01CC004
:100020001BC01AC019C080C617C0CEC4E3C4EEC43A
:10003000F5C402C511C51FC511241FBECFE5D1E00F
:10004000DEBFCDBF20E0A0E6B0E001C01D92A23E21
:10005000B207E1F770D4B9C7D3CF1ABA8FEF88BB14
:100060008FE587BB8EEF81BB789480E090E00895A8
:10007000FDC0EF92FF921F93CF93DF931F92CDB7F6
:10008000DEB7142F880F698329D16981009779F42D
:10009000862F09D17C01009719F0EDD0C70107C068
:1000A000812F01D1F82E192FE6D08F2D912F0F908F
:1000B000DF91CF911F91FF90EF900895CF92DF9243
:1000C000FF920F931F93CF93DF931F92CDB7DEB7AD
:1000D0008A01F22E880F698301D169810097D1F4DA
:1000E000862FE1D06C01009711F4680104C0C3D0E1
:1000F000C60110C0FA94FF2051F0D6018D916D0118
:10010000D2D08C010097B1F3B6D0C80103C0B3D0F0
:1001100080E090E00F90DF91CF911F910F91FF90C1
:10012000DF90CF900895CF92DF92FF920F931F93AD
:10013000CF93DF931F92CDB7DEB7F82E8A01880FD9
:100140006983CCD06C016981009769F4862FABD0AC
:100150006C01009741F48FD08F2D880F8160BED045
:100160006C01009719F087D0C6010CC061E0C8018E
:10017000CED08C01009719F07ED0C80103C07BD08F
:1001800080E090E00F90DF91CF911F910F91FF9051
:10019000DF90CF9008958F929F92BF92CF92DF927F
:1001A000EF92FF920F931F93CF93DF931F92CDB7E0
:1001B000DEB7182F6A01B22E880F69838FD07C01B9
:1001C0006981009729F4862F6ED07C01009719F081
:1001D00052D0C70128C04FD0812F880F81607ED0B8
:1001E0008C010097C1F4812C912CEB2CF12C21E097
:1001F000E21AF108C601880D991D8B1488F48E143B
:100200009F0461F060E083D08C018FEF881A980A18
:100210000115110579F32FD0C80105C061E0F3CFB6
:100220002AD080E090E00F90DF91CF911F910F9145
:10023000FF90EF90DF90CF90BF909F908F900895A8
:10024000C59ABD980895C79ABF9808958111F8CFAF
:10025000C598BD9A0895BD9886B385FB882780F917
:1002600008958111F0CFC798BF9A0895ECDFE8DFB9
:1002700080E090E0089580E0E9DFE5DF0000E0DF66
:1002800080E090E00895CF93DEDF0000E4DFC82F28
:1002900080E0E7DFC11103C080E390E002C081E3AA
:1002A00090E0CF910895CF93DF93D82FC8E080E0FE
:1002B000D8DF8D2F881F8827881FC8DFC4DFDD0F98
:1002C000C150A9F780E0CDDFBBDFDDDF80339105D2
:1002D00011F480E090E0DF91CF910895CF93C82F83
:1002E000B79B08C080E0B2DF000080E0BADF8C2F4F
:1002F000CF91D9CF85E390E0CF910895811102C0CD
:10030000A5DF01C09DDF9FDF000080E0AACFCF9274
:10031000DF92FF920F931F93CF93DF931F92CDB77E
:10032000DEB78C0187E0C82ED12CF12C69838BDFDE
:1003300092DF282F0C2C01C0220F0A94EAF7F22A30
:1003400080E08FDF81E0C81AD1086981EFEFCE1617
:10035000DE0661F7862FD2DFF801F08280E090E0C0
:100360000F90DF91CF911F910F91FF90DF90CF9071
:1003700008952F923F924F925F926F927F928F9249
:100380009F92AF92BF92CF92DF92EF92FF920F9324
:100390001F93CF93DF93CDB7DEB76A970FB6F8946C
:1003A000DEBF0FBECDBFFC0182812AE0622F01D6E5
:1003B0008B8799878181FDD5582F492F8081F9D569
:1003C0002091B1003091B20038872F837901690103
:1003D000590119018901290139014901D9013E83D6
:1003E0002D831A821982FB85EF2FF0E0FC87EB87C3
:1003F000F901E85BFF4FFE8BED8B3196F88FEF8BA9
:100400003196FA8FE98FF985EF2FF0E0FA87E987C7
:10041000E52FF0E0FE87ED87E42FF0E0F88BEF8723
:10042000482F50E05A8B498BE92FF0E0FC8BEB8B87
:1004300049818B859C85042E02C0959587950A94E9
:10044000E2F780FF10C0ED89FE898081F60180838C
:10045000EF89F88D8081F6018283E98DFA8D8081A4
:10046000F601818304C0F70110821282118289850E
:100470009A85042E02C0959587950A94E2F780FF2D
:1004800010C0ED89FE898081F5018383EF89F88DA5
:100490008081F5018583E98DFA8D8081F501848362
:1004A0000BC089819A8162E170E072D5820F931F3F
:1004B000FC011382158214828D859E85042E02C054
:1004C000959587950A94E2F780FF10C0ED89FE8923
:1004D0008081F8018683EF89F88D8081F80180871B
:1004E000E98DFA8D8081F801878304C0F1011682BD
:1004F000108617828F859889042E02C0959587955E
:100500000A94E2F780FF10C0ED89FE898081F30133
:100510008187EF89F88D8081F3018387E98DFA8DDA
:100520008081F301828704C0F2011186138612864E
:1005300089899A89042E02C0959587950A94E2F7D5
:1005400080FF13C0ED89FE8980811C968C931C97D7
:10055000EF89F88D80811E968C931E97E98DFA8D18
:1005600080811D968C931D9704C0F4011486168615
:100570001586EB89FC8902C0F595E7954A95E2F767
:10058000E0FF13C0ED89FE898081EF81F8858787C0
:10059000EF89F88D8081EF81F885818BE98DFA8D67
:1005A0008081EF81F885808B05C0ED81FE81178603
:1005B000118A108A49815A814F5F5F4F5A8349835C
:1005C000EF81F8857296F887EF834D815E814E5EEC
:1005D0005F4F5E834D83529652E1850E911C62E11E
:1005E000660E711C72E1470E511C0E5E1F4F82E1B8
:1005F000280E311C92E1A90EB11CE2E1CE0ED11CF5
:10060000F2E1EF0EF11C49815A814430510509F0A5
:100610000FCF6A960FB6F894DEBF0FBECDBFDF9145
:10062000CF911F910F91FF90EF90DF90CF90BF90EF
:10063000AF909F908F907F906F905F904F903F9082
:100640002F9008958091B1009091B200AFC0CF93E8
:10065000DF932091B1003091B200A82FB0E0C62FF7
:10066000D0E0CE0163E070E093D4FC01CD0162E103
:1006700070E08ED4E80FF91FE20FF31F1082128290
:10068000CE0163E070E084D4FC01CD0162E170E052
:100690007FD4E80FF91FE20FF31F1182DF91CF9192
:1006A0000895EF92FF920F93CF93DF93A091B10043
:1006B000B091B200C82FD0E0E62EF12CC70163E064
:1006C00070E066D4FC01CE0162E170E061D4E80F15
:1006D000F91FEA0FFB1F40832283C70163E070E02C
:1006E00057D4FC01CE0162E170E052D4E80FF91F4B
:1006F000EA0FFB1F0183DF91CF910F91FF90EF90E5
:1007000008954091B1005091B20020E030E080E0C7
:1007100090E0FA01E80FF91F10821182128203960D
:1007200082319105B1F72F5F3F4F4E5E5F4F24300E
:10073000310569F7089583E690E09093B2008093C5
:10074000B1002BD0DECFCF93DF93A091B100B09159
:10075000B200E0E0F0E020E030E0ED01C20FD31F96
:1007600088834A8369832D5F3F4F22313105A9F782
:1007700031965296E430F10571F7DF91CF910895EB
:100780002091B1003091B200F901E85BFF4F808306
:1007900031964083319660830895FC01E45BFF4FFE
:1007A0001082319610828FEF88BB0895AF92BF926E
:1007B000CF92DF92EF92FF920F931F93CF93DF932D
:1007C0009C018C01035B1F4FE8018881E82EAA245D
:1007D000A394B12C02C0AA0CBB1C8A95E2F7D901E4
:1007E000A45BBF4F8C9190E063E070E0D1D3FC013B
:1007F0003296E20FF31F49E050E060E070E0CF0175
:100800000297EC01288130E02A213B210E2C02C006
:10081000369527950A94E2F7042E02C0220F331F63
:100820000A94E2F70196EC01888190E08A219B21ED
:100830000E2C02C0969587950A94E2F76A01DFEFC5
:10084000CD1ADD0A02C0880F991FCA94E2F7282B3F
:10085000392B808190E08A219B210E2C02C0969535
:1008600087950A94E2F76A01C2E0CC0ED11C02C05F
:10087000880F991FCA94E2F7282B392B622B732B10
:100880004350510972964D3FDFEF5D0709F0B7CF36
:1008900080E090E094989B01082E02C03695279541
:1008A0000A94E2F720FF02C0939A01C09398949AA9
:1008B00001968C30910571F7959A969A96988C913D
:1008C000811102C0C69A0CC028B33FEF380F81E0F7
:1008D00090E0032E01C0880F0A94EAF7282B28BB6A
:1008E0002C91253061F038B381E090E0022E01C0F8
:1008F000880F0A94EAF78095832388BB01C0C698C5
:1009000095988C91853018F48F5F8C9309C01C9258
:10091000F8018081843018F48F5F808301C01082D9
:10092000DF91CF911F910F91FF90EF90DF90CF90CB
:10093000BF90AF900895CF93DF9300D000D01F9267
:10094000CDB7DEB78ADBF7DECE0105961CD27DD2AD
:100950008FDBBE016C5F7F4FCE010196B0D1892B3A
:1009600019F040E060E002C041E061E081E008DFB2
:10097000CE010196FEDC10E098D2863008F498C0D3
:1009800011110FC061E070E083EB90E07CD28091A8
:10099000B3008A3A11F411E08BC087D28111F2CFF3
:1009A00087C083D28630B8F366E083EB90E051D203
:1009B0008091B30090E0FC017097E730F10508F0FA
:1009C00072C0EB5EFF4F09948091600090916100CE
:1009D000019721F061E070E08EEF68C00091B800EF
:1009E0002091B7004091B6006091B5008091B400AD
:1009F00058DE55C08091600090916100019751F7D9
:100A00006091B5008091B40022DE49C08091600001
:100A1000909161000197F1F674DE41C08091600011
:100A2000909161000197B1F64091B6006091B500D8
:100A30008091B40088DE33C08091600090916100A5
:100A4000892B41F62091B6004091B5006091B40029
:100A5000CE010196BBD023C08091600090916100CF
:100A6000892B09F0B7CF4091B6006091B500809115
:100A7000B40086DE14C08091B400811108C01092C9
:100A8000610010926000CE01019673DC08C08130D5
:100A900031F481E090E0909361008093600061E028
:100AA00070E082E403C061E070E08FEFD1D110E02C
:100AB0008C81882311F18C811C829981890F898313
:100AC0008C3390F08C5389838A8191E0980F9A83BC
:100AD0009C3350F08B538A838B8191E0980F9B83DA
:100AE000983110F087518B83809160009091610064
:100AF000892B19F4CE0101963CDC8D81882309F401
:100B00003BCF1D829FDD38CFFC0175836483842F2A
:100B100090E00197860F971F978386837183608388
:100B2000738362831286118640870895FC01828553
:100B30008823D9F090859817D8F0A281B3818C9141
:100B4000DB018C938285815082878281938126810B
:100B500037818217930719F48481958101C001962A
:100B60009383828380E090E0089582E190E008958D
:100B700081E190E00895FC01928580859817B1F09D
:100B8000A081B1816C9382858F5F82878081918102
:100B9000268137818217930719F48481958101C0DA
:100BA00001969183808380E090E0089583E190E056
:100BB000089521E030E0FC018285811102C020E02F
:100BC00030E0C9010895FC0182850895DF92EF921B
:100BD000FF920F931F93CF93DF9300D01F92CDB757
:100BE000DEB78C01D62EE42EF22E3AE0822F632F50
:100BF000E0D1582F5295507F592B5983842FD9D14A
:100C0000582F5295507F592B5A838D2DD2D1382F82
:100C10003295307F392B3B8323E0AE014F5F5F4F2E
:100C200060E088E64BDA009721F4F801D282E18295
:100C3000F0820F900F900F90DF91CF911F910F9145
:100C4000FF90EF90DF9008950F931F93CF93DF9362
:100C500000D01F92CDB7DEB78C0123E0AE014F5F0D
:100C60005F4F60E088E697DA9C010097F9F499817C
:100C7000892F807782958F706AE081D19F70980F5D
:100C8000F80190839A81892F807782958F706AE02E
:100C900076D19F70980F91839B81892F8073829565
:100CA0008F706AE06CD19F70980F9283C9010F908A
:100CB0000F900F90DF91CF911F910F9108950F9397
:100CC0001F93CF93DF931F92CDB7DEB78C011982AC
:100CD0007093BA006093B9008BB788608BBF82E0D5
:100CE00084B940E46EE088E6C4D90097B9F4AE0157
:100CF0004F5F5F4F6FE088E616DA898187FF0CC08F
:100D00002AE24AE269E0C80161DF48E06FE088E674
:100D1000B0D981E490E002C0C80196DF0F90DF9166
:100D2000CF911F910F9108951F920F920FB60F92BE
:100D300011248F93EF93FF93C99B07C0E091B900F3
:100D4000F091BA0080818F5F8083FF91EF918F9146
:100D50000F900FBE0F901F901895E091BB00F0917F
:100D6000BC009383828382E080BF83BF8DEA86BF0D
:100D700012BE89B7816089BFE091BB00F091BC00D1
:100D800081E081830895EDEBF0E0F093BC00E09307
:100D9000BB0010821092BE001092C0001092BF00E3
:100DA0001092C1001092C2001092C3001092C400B1
:100DB000D4CF1F920F920FB60F9211248F939F934F
:100DC000AF93BF93EF93FF93F8941DBC1CBC87EEC9
:100DD00093E09BBD8ABDE091BB00F091BC00848193
:100DE0009581A681B7810196A11DB11D848395834C
:100DF000A683B7837894FF91EF91BF91AF919F91B4
:100E00008F910F900FBE0F901F9018951F920F9209
:100E10000FB60F9211248F93EF93FF93F89412BEA5
:100E20008DEA86BFE091BB00F091BC000280F381A7
:100E3000E02D80818F5F80837894FF91EF918F9177
:100E40000F900FBE0F901F90189581E090E02EC07C
:100E500044C00F931F93CF93DF931F92CDB7DEB79C
:100E60008C01662351F0C801698340D06981892BC8
:100E7000C1F70F5F1F4F6150F4CF0F90DF91CF91FB
:100E80001F910F9108950F931F93CF93DF93EC0160
:100E90008B01CE012BD00130110511F40097C9F759
:100EA000DF91CF911F910F91089538C0CF93DF93B9
:100EB000EC0127ED30E03093D6002093D50040E1DF
:100EC00065EC70E0C90120DED2B9C9B986E083B90A
:100ED00088E98AB9DF91CF9108955D9BFECF8CB9E7
:100EE0006130710511F45D9BFECF0895CF93DF93C0
:100EF000EC018091D5009091D6005BDE892B49F002
:100F0000F894BE018091D5009091D6000FDE7894C0
:100F100002C081E290E0DF91CF9108958091D500E9
:100F20009091D60050CE1F920F920FB60F921124BF
:100F30002F933F934F935F936F937F938F939F93E1
:100F4000AF93BF93EF93FF93F8946CB160936200FB
:100F50008091D5009091D6000EDE7894FF91EF91AC
:100F6000BF91AF919F918F917F916F915F914F91C1
:100F70003F912F910F900FBE0F901F901895002456
:100F800080FD060E660F11F08695D1F7802D08952D
:100F90000024552704C0080E591F880F991F009779
:100FA00029F076956795B8F37105B9F7802D952FDF
:100FB0000895991B79E004C0991F961708F0961BB5
:0E0FC000881F7A95C9F780950895F894FFCFA1
:00000001FF
