:1000000014C023C022C021C0CCC41FC01EC03CC726
:100010001CC01BC01AC019C018C008C516C015C026
:1000200014C013C012C0DBC310C011241FBECFE523
:10003000D1E0DEBFCDBF20E0A0E6B0E001C01D9260
:10004000AF38B207E1F7CBD197C7DACFCF93DF93C1
:10005000CDB7DEB78AE390E021E0FC01208388E39E
:1000600090E02FEFFC01208387E390E02FE5FC0177
:10007000208381E390E02EEFFC01208384E290E076
:1000800022E0FC0120838BE590E02BE530E0F901D4
:1000900020812860FC012083789480E090E0DF914B
:1000A000CF910895CF93DF93CDB7DEB7ACD0DF917A
:1000B000CF910895CF93DF9300D000D01F92CDB79A
:1000C000DEB78C836D8382E390E09B838A838D818E
:1000D000882321F48C81880F898307C08C81882F25
:1000E00090E0880F991F81608983898195D09B83D7
:1000F0008A838A819B810F900F900F900F900F90B1
:10010000DF91CF910895CF93DF9300D000D01F925D
:10011000CDB7DEB78B836C834D8360E08B81CADF04
:100120009A83898389819A818033910519F0898125
:100130009A8113C08C81B8D09A83898389819A81EE
:10014000009721F058D089819A8107C08D81ACD069
:100150009A83898350D089819A810F900F900F9054
:100160000F900F90DF91CF910895CF93DF93CDB78C
:10017000DEB728970FB6F894DEBF0FBECDBF8C83D5
:100180006D835F834E83288761E08C8193DF9B833F
:100190008A838A819B81009719F08A819B8122C082
:1001A0008D8182D09B838A83198215C08E819F8125
:1001B000BBD09B838A838A819B81009721F01BD0CF
:1001C0008A819B810FC08E819F8101969F838E8340
:1001D00089818F5F898399818885981738F30BD03F
:1001E0008A819B8128960FB6F894DEBF0FBECDBFE3
:1001F000DF91CF910895CF93DF93CDB7DEB746D08F
:10020000DF91CF910895CF93DF93CDB7DEB780E034
:1002100090E0DF91CF910895CF93DF931F92CDB7F8
:10022000DEB7898386E390E0FC01808188231CF09F
:1002300085E390E027C088E390E028E330E0F9010F
:100240002081206AFC01208387E390E027E330E0EF
:10025000F90120812062FC01208388E390E0FC0109
:10026000808188E390E0FC011082000087E390E049
:1002700027E330E0F90120812068FC012083898197
:1002800013D08CD00F90DF91CF910895CF93DF934F
:10029000CDB7DEB78FE290E02FEFFC01208380E046
:1002A00090E0DF91CF910895CF93DF9300D01F921C
:1002B000CDB7DEB78B8387E0898323C08B81881F0E
:1002C0008827881F8A838A81813051F488E390E0EF
:1002D00028E330E0F90120812062FC01208309C07D
:1002E00088E390E028E330E0F90120812F7DFC01D4
:1002F000208343D08B81880F8B833FD089818150AD
:10030000898389818823D1F687E390E027E330E071
:10031000F90120812F7DFC01208340D00F900F90A8
:100320000F90DF91CF910895CF93DF9300D000D04D
:100330001F92CDB7DEB79D838C8387E0898305C08C
:100340001CD01BD089818150898389818823C1F782
:1003500025D09B838A838FE290E0FC0120818C81F1
:100360009D81FC0120838A819B810F900F900F90CB
:100370000F900F90DF91CF910895CF93DF93CDB77A
:10038000DEB788E390E028E330E0F901308120E82F
:100390002327FC012083DF91CF910895CF93DF9332
:1003A00000D0CDB7DEB7E9DF86E390E0FC018081C5
:1003B000882F90E080729927009729F480E390E0DD
:1003C0009A83898304C081E390E09A838983D5DF8F
:1003D00089819A810F900F90DF91CF910895EF92CC
:1003E000FF920F931F93CF93DF93CDB7DEB72D9777
:1003F0000FB6F894DEBF0FBECDBFCE010B969C8327
:100400008B838B819C81FC0110828B819C8121E0FC
:10041000FC0121838B819C8122E0FC01228316DE7A
:10042000CE01099611D260E875E280E090E03AD3FF
:10043000A6D2DC01CB018D839E83AF83B8870000F9
:100440009ED29B01AC018D819E81AF81B8857901DF
:100450008A01E81AF90A0A0B1B0BD801C701883B6D
:100460000BE09007A105B10558F31CDE9A83898340
:1004700089819A81009749F49E01265F3F4F8B81C5
:100480009C81B901F8D09A83898389819A81CC01B2
:10049000A0E0B0E021E030E041E050E0BC01CD015F
:1004A0002DD364EF71E080E090E013D061E070E064
:1004B0008AE010D364EF71E080E090E00AD061E060
:1004C00070E08DE007D368E873E180E090E001D050
:1004D000DCCFCF93DF93CDB7DEB728970FB6F89474
:1004E000DEBF0FBECDBF6D837E838F839887198259
:1004F0001A821B821C820BC089819A81AB81BC81CC
:100500000196A11DB11D89839A83AB83BC83298188
:100510003A814B815C818D819E81AF81B88528179E
:1005200039074A075B0740F328960FB6F894DEBFF9
:100530000FBECDBFDF91CF910895CF93DF9300D051
:1005400000D01F92CDB7DEB79A8389837C836B83FB
:100550004D8389819A812B813C81FC0135832483E1
:100560008D81882F90E001972B813C81280F391FC6
:1005700089819A81FC013783268389819A81FC01D4
:100580002481358189819A81FC013183208389818D
:100590009A81FC012481358189819A81FC01338310
:1005A000228389819A81FC01128689819A81FC01CA
:1005B000118689819A812D81FC0120870F900F90EF
:1005C0000F900F900F90DF91CF910895CF93DF930D
:1005D00000D01F92CDB7DEB79A8389836B83898160
:1005E0009A81FC01228589819A81FC0180852817E6
:1005F00019F483E190E039C089819A81FC018081FE
:1006000091812B81FC01208389819A81FC01828563
:1006100021E0280F89819A81FC01228789819A81B2
:10062000FC012081318189819A81FC018681978139
:100630002817390759F489819A81FC012481358171
:1006400089819A81FC01318320830DC089819A813F
:10065000FC01808191819C012F5F3F4F89819A81AC
:10066000FC013183208380E090E00F900F900F9089
:10067000DF91CF910895CF93DF93CDB7DEB7279762
:100680000FB6F894DEBF0FBECDBF9D838C837F83F2
:100690006E8319821B821A828E819F8190936200E1
:1006A0008093610080E4898349816EE088E62BDDD8
:1006B0009B838A838A819B81009719F08A819B8121
:1006C00007C08C819D810DD09B838A838A819B8109
:1006D00027960FB6F894DEBF0FBECDBFDF91CF9146
:1006E0000895CF93DF93CDB7DEB728970FB6F89470
:1006F000DEBF0FBECDBF98878F83CE01049623E067
:10070000AC0160E088E631DD9A83898389819A8132
:10071000009719F089819A8159C08C818B838B81D4
:10072000282F2F708B81882F90E0807799279595BF
:100730008795959587959595879595958795982F04
:10074000892F880F880F890F880F280F8F81988530
:10075000FC0120838D818B838B81282F2F708B81CF
:10076000882F90E08077992795958795959587951F
:100770009595879595958795982F892F880F880F40
:10078000890F880F280F8F819885FC0121838E8126
:100790008B838B81282F2F708B81882F90E0807323
:1007A000992795958795959587959595879595958D
:1007B0008795982F892F880F880F890F880F280F0A
:1007C0008F819885FC01228389819A8128960FB6B2
:1007D000F894DEBF0FBECDBFDF91CF9108951F9279
:1007E0000F9200905F000F9211242F933F938F93ED
:1007F0009F93EF93FF93CF93DF93CDB7DEB78BE358
:1008000090E0FC018081882F90E08270992700970A
:1008100069F08091610090916200209161003091B7
:100820006200F90120812F5FFC012083DF91CF91CD
:10083000FF91EF919F918F913F912F910F90009297
:100840005F000F901F901895CF93DF9300D0CDB726
:10085000DEB79A83898385E690E090936400809365
:1008600063008091630090916400FC01108280918C
:10087000630090916400FC0112828091630090916A
:100880006400FC01148213828091630090916400E3
:10089000FC01158216821782108689819A8106D002
:1008A0003DD00F900F90DF91CF910895CF93DF93BC
:1008B00000D0CDB7DEB79A83898380916300909191
:1008C000640029813A81FC013483238380E590E030
:1008D00022E0FC01208383E590E022E0FC012083FC
:1008E00086E590E02DEAFC01208382E590E0FC01A2
:1008F000108289E590E029E530E0F901208121604E
:10090000FC012083809163009091640021E0FC0150
:1009100022830F900F90DF91CF910895CF93DF93B3
:10092000CDB7DEB78EE490E02AE0FC0120838AE4B4
:1009300090E027EE33E0FC01318320838CE490E0EB
:10094000FC011182108289E590E029E530E0F9018F
:1009500020812064FC0120838091630090916400D9
:10096000FC01158216821782108680916300909197
:10097000640021E0FC012083DF91CF910895CF93A3
:10098000DF93CDB7DEB78091630090916400FC01E6
:1009900085819681A781B085BC01CD01DF91CF9182
:1009A00008951F920F9200905F000F9211242F93D1
:1009B0003F938F939F93AF93BF93EF93FF93CF9307
:1009C000DF93CDB7DEB7F8948CE490E0FC011182A0
:1009D00010828AE490E027EE33E0FC01318320832B
:1009E00020916300309164008091630090916400D5
:1009F000FC0185819681A781B0850196A11DB11D5D
:100A0000F90185839683A783B0877894DF91CF918E
:100A1000FF91EF91BF91AF919F918F913F912F9156
:100A20000F9000925F000F901F9018951F920F92E9
:100A300000905F000F9211242F933F938F939F9309
:100A4000EF93FF93CF93DF93CDB7DEB7F89482E5B2
:100A500090E0FC01108286E590E02DEAFC01208305
:100A60008091630090916400FC01838194812091C6
:100A7000630030916400F90123813481F901208100
:100A80002F5FFC0120837894DF91CF91FF91EF914C
:100A90009F918F913F912F910F9000925F000F9047
:100AA0001F901895CF93DF9300D000D0CDB7DEB75D
:100AB00069837A838B839C8389819A81AB81BC8192
:100AC000BC01CD015ED10F900F900F900F90DF9180
:100AD000CF910895CF93DF9300D01F92CDB7DEB7AB
:100AE00089837B836A838A819B81BC01898195D1BB
:100AF0000F900F900F90DF91CF9108950F931F9358
:100B0000CF93DF93CDB7DEB76C970FB6F894DEBF07
:100B10000FBECDBF6D877E878F87988B5A8B498B91
:100B20003C8B2B8B89E089830EC08981992787FDB7
:100B300090959E012D5F3F4F820F931FFC01108205
:100B4000898181508983898188237CF78D859E8561
:100B5000AF85B889BB23A4F489899A89BC018DE249
:100B6000B9DF8D859E85AF85B889B095A0959095A4
:100B700081959F4FAF4FBF4F8D879E87AF87B88BB3
:100B80008B899C898130910551F489899A89BC01AE
:100B900080E3A0DF89899A89BC0188E79BDF1982FD
:100BA0007BC08B899C89009761F58981082F11276B
:100BB00007FD10958D859E85AF85B8892AE030E0C8
:100BC00040E050E0BC01CD01BBD1DC01CB0120E312
:100BD000280FCE010396800F911FFC0120838D8585
:100BE0009E85AF85B8892AE030E040E050E0BC0146
:100BF000CD01A6D1DA01C9018D879E87AF87B88B59
:100C000045C08D859E85AF85B8898F709927AA27A5
:100C1000B078BB2354F40197A109B109806F9F6F8D
:100C2000AF6FBF6F0196A11DB11D8A838A818A3083
:100C300078F48981992787FD90952A8140E3420FB6
:100C40009E012D5F3F4F820F931FFC0140830EC01A
:100C50008981992787FD90952A8145E4420F9E015D
:100C60002D5F3F4F820F931FFC0140838D859E8532
:100C7000AF85B889689413F8B595A795979587952A
:100C80001694D1F78D879E87AF87B88B89818A307C
:100C90001CF489818F5F89838D859E85AF85B88996
:100CA0008A309105A105B1050CF07BCF8B899C8919
:100CB0008130910539F58D859E85AF85B8898A305B
:100CC0009105A105B1057CF48981992787FD90954F
:100CD0002D8540E3420F9E012D5F3F4F820F931FF2
:100CE000FC0140831DC08981992787FD90952D8542
:100CF00045E4420F9E012D5F3F4F820F931FFC0181
:100D000040830EC08981992787FD90952D8540E30A
:100D1000420F9E012D5F3F4F820F931FFC014083C6
:100D200089E0898320C08981992787FD90959E015C
:100D30002D5F3F4F820F931FFC018081882381F03C
:100D40008981992787FD90959E012D5F3F4F820FE6
:100D5000931FFC01208189899A89BC01822FBADE08
:100D600089818150898389818823ECF66C960FB63E
:100D7000F894DEBF0FBECDBFDF91CF911F910F91D1
:100D80000895CF93DF93CDB7DEB72A970FB6F894C7
:100D9000DEBF0FBECDBF6B837C838D839E8384E8D3
:100DA00090E09093830080938200809182009091E4
:100DB000830040E162E770E0C0DB80E291EAA7E0F7
:100DC000B0E02B813C814D815E81BC01CD0196D08C
:100DD000DA01C90101979A83898382E290E029812F
:100DE0003A81232F3327FC01208389E290E0298177
:100DF000FC01208383E290E026E0FC0120838AE26C
:100E000090E028E9FC0120832A960FB6F894DEBF13
:100E10000FBECDBFDF91CF910895CF93DF9300D068
:100E20001F92CDB7DEB789837B836A83000016D01B
:100E30000097E9F38CE290E02981FC0120838A810C
:100E40009B818130910521F4000008D00097E9F3DF
:100E50000F900F900F90DF91CF910895CF93DF9374
:100E6000CDB7DEB78BE290E0FC018081882F90E067
:100E700080729927009719F480E090E002C081E029
:100E800090E0DF91CF9108951F920F9200905F0044
:100E90000F9211242F933F934F935F936F937F9300
:100EA0008F939F93AF93BF93EF93FF93CF93DF9372
:100EB000CDB7DEB7F8948CE290E0FC01808180939E
:100EC0006000209160008091820090918300622FE9
:100ED0007DDB7894DF91CF91FF91EF91BF91AF913E
:100EE0009F918F917F916F915F914F913F912F9142
:100EF0000F9000925F000F901F901895A1E21A2E9C
:100F0000AA1BBB1BFD010DC0AA1FBB1FEE1FFF1FAD
:100F1000A217B307E407F50720F0A21BB30BE40BFD
:100F2000F50B661F771F881F991F1A9469F7609544
:100F30007095809590959B01AC01BD01CF010895FE
:100F4000052E97FB16F400940FD057FD05D0D6DF81
:100F500007FC02D046F408C0509540953095219585
:100F60003F4F4F4F5F4F08959095809570956195D5
:0C0F70007F4F8F4F9F4F0895F894FFCFE4
:00000001FF
