:1000000014C023C022C021C0ADC31FC01EC01DC06C
:100010001CC01BC01AC019C018C0CFC316C015C061
:1000200014C013C012C011C010C011241FBECFE5F0
:10003000D1E0DEBFCDBF20E0A0E6B0E001C01D9260
:10004000A23CB207E1F7D6D388C4DACF80EA88BBF6
:1000500081E08ABB8FEF88BB87BB8EEF81BB80E0DE
:10006000089582E690E09093B2008093B10024D28C
:100070002091B1003091B200F9013296265B3F4FDA
:10008000CF014296DF0112971C9211961C921082AA
:100090003396E817F907B1F7E217F30789F70895E0
:1000A0002F923F924F925F926F927F928F929F9288
:1000B000BF92CF92DF92EF92FF920F931F93CF9355
:1000C000DF93CDB7DEB728970FB6F894DEBF0FBE2B
:1000D000CDBF98878F83462FDC0112968C911297A3
:1000E0003AE0632F0CD4F82FE92F11962C91119739
:1000F000822F05D4482E292E8C91BB24B394411114
:1001000001C0B12C6AE0FBD3882E912C692E712C92
:100110004091B1005091B200622F1E821D8220E0FA
:1001200030E0512C312C6A01B8E4CB0ED11C7A019D
:1001300089E4E80EF11C8A01065B1F4FAF2FB0E087
:10014000BA83A9838E2F90E09C838B83C601CF80D6
:10015000D88498878F83B11091C0662309F48EC02C
:10016000C901880F991F880F991F880F991FD60101
:100170006C9161113EC0B201022E02C07595679567
:100180000A94E2F760FFEAC0DC01A20FB31FAA0FD6
:10019000BB1FA40FB51FEF81F885608116966C9385
:1001A0001697F701608118966C931897F801608193
:1001B00017966C93B101022E02C0759567950A944B
:1001C000E2F760FFC0C0DC01A20FB31FAA0FBB1F84
:1001D000A40FB51FEF81F885608119966C9319976C
:1001E000F70160811B966C931B97F80160811A964A
:1001F0006C93B401022E02C0759567950A94E2F7DC
:10020000FC01E20FF31FEE0FFF1FE40FF51F60FF6D
:100210007EC0AF81B8856C916487D7016C91668789
:10022000D8016C916587B301022E02C07595679560
:100230000A94E2F7FC01E20FF31FEE0FFF1FE40F39
:10024000F51F60FF60C0AF81B8858C918787D701AB
:100250008C91818BD8018C91808B2F5F3F4FED81EA
:10026000FE817296FE83ED832430310509F453C07C
:10027000D60111966C91BB2009F46FCF89819A81C8
:10028000022E02C0959587950A94E2F780FF83C0FD
:10029000AF81B8858C91AD81BE81A40FB51F8C93C1
:1002A000F701808112968C931297F8018081119644
:1002B0008C938B819C81022E02C0959587950A9420
:1002C000E2F780FF56C0C901880F991F880F991F58
:1002D000880F991FDC01A20FB31FAA0FBB1FA40F29
:1002E000B51FEF81F885608113966C931397F70122
:1002F000608115966C931597F801608114966C9344
:10030000B11039CF34CF1786118A108AA6CF148640
:100310001686158688CF28960FB6F894DEBF0FBED6
:10032000CDBFDF91CF911F910F91FF90EF90DF90A4
:10033000CF90BF909F908F907F906F905F904F90E5
:100340003F902F900895FC01E20FF31FEE0FFF1F67
:10035000E40FF51F1186138612864BCFFC01E20FC6
:10036000F31FEE0FFF1FE40FF51F16821086178292
:1003700021CFC901880F991F880F991F880F991FD6
:10038000FC01E20FF31FEE0FFF1FE40FF51F1382B6
:1003900015821482B5CFED81FE81E40FF51F108226
:1003A0001282118286CF682F8091B1009091B200A5
:1003B0008EC0E091B100F091B20090E0262F30E0C5
:1003C000260F311D260F311DAC01440F551F440F60
:1003D000551F440F551F480F591F440F551F240F19
:1003E000351FE20FF31F10821282118208950F93BE
:1003F000A091B100B091B20090E0E62FF0E0E60FDE
:10040000F11DE60FF11DBC01660F771F660F771F08
:10041000660F771F680F791F660F771FE60FF71FAC
:10042000AE0FBF1F4C9312962C93129711960C93FC
:100430000F9108952091B1003091B200F9013296E8
:10044000265B3F4FCF014296DF0112971C92119617
:100450001C9210823396E817F907B1F7E217F307F9
:1004600089F70895CF93DF93C091B100D091B20086
:10047000FE013296C65BDF4F9F012E5E3F4FDF01CC
:1004800012978C93408311966C933396E217F3077F
:10049000B1F7EC17FD0781F7DF91CF910895209117
:1004A000B1003091B200F901E85BFF4F80833196D3
:1004B0004083319660830895FC01E45BFF4F108216
:1004C00031961082319610828FEF88BB0895AF92DB
:1004D000BF92CF92DF92EF92FF920F931F93CF9331
:1004E000DF935C012EE4A20EB11CE5012881E22E0F
:1004F00001E010E002C0000F111F2A95E2F7613001
:1005000039F0FC01E45BFF4F20812150260F20834E
:10051000DC01A35BBF4F2C91E22FF0E0E20FF11D55
:10052000E20FF11D3296E80FF91F49E050E060E05C
:1005300070E0CF010297EC01888190E08023912345
:100540000E2C02C0969587950A94E2F7042E02C0FD
:10055000880F991F0A94E2F79F0121503109E901A0
:10056000288130E0202331230E2C02C036952795B8
:100570000A94E2F76A01DFEFCD1ADD0A02C0220F0A
:10058000331FCA94E2F7822B932B208130E0202383
:1005900031230E2C02C0369527950A94E2F76A01A2
:1005A000C2E0CC0ED11C02C0220F331FCA94E2F766
:1005B000822B932B682B792B4350510972964D3F18
:1005C000DFEF5D0709F0B5CF80E090E006C0939AB9
:1005D000949A01968C30910581F094989B01082E95
:1005E00002C0369527950A94E2F720FDF0CF939844
:1005F000949A01968C30910581F7959A969A9698DF
:100600002C91253021F181E090E0022E01C0880F6D
:100610000A94EAF7809588BB95988C918530A0F074
:100620001C92F5018081843060F01082DF91CF91BF
:100630001F910F91FF90EF90DF90CF90BF90AF9000
:1006400008958F5F8083F2CF8F5F8C93EFCF8FEB16
:1006500088BBE2CFFC018081680F60836C3390F02F
:100660006C536083918181E0890F81838C3350F0DA
:100670009B539183928181E0890F8283883110F0AE
:100680009751928380E00895EAEBF0E0F093B9008F
:10069000E093B80010821092BB001092BE0010923E
:1006A000BF001092C0001092C1009093BD008093D3
:1006B000BC0082E080BF83BF8DEA86BF12BE89B7CF
:1006C000816089BFE091B800F091B90021E02183F9
:1006D0008AE08EBD87EE93E09BBD8ABD1DBC1CBC2D
:1006E00089B7806489BFE091B800F091B9001482A5
:1006F00015821682178220830895E091B800F09148
:10070000B9009383828382E080BF83BF8DEA86BF76
:1007100012BE89B7816089BFE091B800F091B9003D
:1007200081E0818308958AE08EBD87EE93E09BBDD2
:100730008ABD1DBC1CBC89B7806489BFE091B8002C
:10074000F091B900148215821682178281E08083AD
:100750000895E091B800F091B900648175818681B7
:10076000978108951F920F920FB60F9211248F93C5
:100770009F93AF93BF93EF93FF9387EE93E09BBD5F
:100780008ABD1DBC1CBCE091B800F091B900848109
:100790009581A681B7810196A11DB11D84839583A2
:1007A000A683B783FF91EF91BF91AF919F918F91F6
:1007B0000F900FBE0F901F9018951F920F920FB6BB
:1007C0000F9211248F93EF93FF938DEA86BF12BE91
:1007D000E091B800F091B9000280F381E02D8081B2
:1007E0008F5F8083FF91EF918F910F900FBE0F90DD
:1007F0001F901895CF93DF931F92CDB7DEB7198264
:1008000025DC2FDCCE0101963FDF84E18093B3002D
:100810008AE28093B40080E18093B50083EB90E09E
:100820009093B7008093B60040E060E080E037DE50
:1008300061E070E08091B6009091B70031DC78946F
:1008400000E0212C10E03324339488EE482E83E01E
:10085000582E612C712C98EC892E912CA12CB12C46
:1008600078DF6B017C01A301920155D061307105E5
:100870008105910521F1623071058105910511F421
:1008800033243394C701B601A501940144D0672BEA
:10089000682B692B71F41F5F1031B1F0402F622D6E
:1008A000812FFDDD61E070E08091B6009091B7008E
:1008B000F7DB89818823A1F276DD1982D1CF81E02F
:1008C000381671F0312CDECF0F5F003111F010E0DF
:1008D000E5CF239480E12812FACF212C10E0DECF5F
:1008E00061E08091B6009091B700B4DE60E070E006
:1008F0008091B6009091B700D3DB312CC3CF991B08
:1009000079E004C0991F961708F0961B881F7A9506
:10091000C9F780950895A1E21A2EAA1BBB1BFD0101
:100920000DC0AA1FBB1FEE1FFF1FA217B307E407CE
:10093000F50720F0A21BB30BE40BF50B661F771F26
:10094000881F991F1A9469F7609570958095909506
:0E0950009B01AC01BD01CF010895F894FFCFCB
:00000001FF
