:1000000014C023C022C021C020C01FC01EC01DC0FC
:100010001CC01BC01AC019C018C017C016C015C01C
:1000200014C013C012C011C010C011241FBECFE5F0
:10003000D1E0DEBFCDBF20E0A0E6B0E001C01D9260
:10004000A83BB207E1F7F5D26FC3DACF80EA88BBED
:1000500081E08ABB8FEF87BB8EEF81BB80E0089584
:1000600082E690E09093B2008093B10024D2209178
:10007000B1003091B200F9013296265B3F4FCF01BB
:100080004296DF0112971C9211961C9210823396B1
:10009000E817F907B1F7E217F30789F708952F92E8
:1000A0003F924F925F926F927F928F929F92BF92F8
:1000B000CF92DF92EF92FF920F931F93CF93DF9334
:1000C000CDB7DEB728970FB6F894DEBF0FBECDBF11
:1000D00098878F83462FDC0112968C9112973AE015
:1000E000632F02D3F82FE92F11962C911197822FAD
:1000F000FBD2482E292E8C91BB24B394411101C010
:10010000B12C6AE0F1D2882E912C692E712C40918D
:10011000B1005091B200622F1E821D8220E030E0BB
:10012000512C312C6A01B8E4CB0ED11C7A0189E440
:10013000E80EF11C8A01065B1F4FAF2FB0E0BA83B7
:10014000A9838E2F90E09C838B83C601CF80D884B7
:1001500098878F83B11091C0662309F48EC0C901BE
:10016000880F991F880F991F880F991FD6016C91CE
:1001700061113EC0B201022E02C0759567950A94C6
:10018000E2F760FFEAC0DC01A20FB31FAA0FBB1F9A
:10019000A40FB51FEF81F885608116966C931697B2
:1001A000F701608118966C931897F8016081179693
:1001B0006C93B101022E02C0759567950A94E2F71F
:1001C00060FFC0C0DC01A20FB31FAA0FBB1FA40FAA
:1001D000B51FEF81F885608119966C931997F70127
:1001E00060811B966C931B97F80160811A966C9343
:1001F000B401022E02C0759567950A94E2F7FC01DE
:10020000E20FF31FEE0FFF1FE40FF51F60FF7EC02C
:10021000AF81B8856C916487D7016C916687D801EE
:100220006C916587B301022E02C0759567950A949B
:10023000E2F7FC01E20FF31FEE0FFF1FE40FF51FC3
:1002400060FF60C0AF81B8858C918787D7018C91A2
:10025000818BD8018C91808B2F5F3F4FED81FE8188
:100260007296FE83ED832430310509F453C0D60124
:1002700011966C91BB2009F46FCF89819A81022E6F
:1002800002C0959587950A94E2F780FF83C0AF81FD
:10029000B8858C91AD81BE81A40FB51F8C93F701F9
:1002A000808112968C931297F801808111968C931D
:1002B0008B819C81022E02C0959587950A94E2F766
:1002C00080FF56C0C901880F991F880F991F880F9A
:1002D000991FDC01A20FB31FAA0FBB1FA40FB51FEC
:1002E000EF81F885608113966C931397F701608115
:1002F00015966C931597F801608114966C93B11064
:1003000039CF34CF1786118A108AA6CF1486168665
:10031000158688CF28960FB6F894DEBF0FBECDBFE6
:10032000DF91CF911F910F91FF90EF90DF90CF90D1
:10033000BF909F908F907F906F905F904F903F9075
:100340002F900895FC01E20FF31FEE0FFF1FE40F43
:10035000F51F1186138612864BCFFC01E20FF31FA7
:10036000EE0FFF1FE40FF51F16821086178221CFB4
:10037000C901880F991F880F991F880F991FFC01C9
:10038000E20FF31FEE0FFF1FE40FF51F138215821C
:100390001482B5CFED81FE81E40FF51F1082128229
:1003A000118286CF682F8091B1009091B2008CC0ED
:1003B000E091B100F091B20090E0262F30E0260FDE
:1003C000311D260F311DAC01440F551F440F551F21
:1003D000440F551F480F591F440F551F240F351F39
:1003E000E20FF31F10821282118208950F93A091E1
:1003F000B100B091B20090E0E62FF0E0E60FF11D01
:10040000E60FF11DBC01660F771F660F771F660FA1
:10041000771F680F791F660F771FE60FF71FAE0F64
:10042000BF1F4C9312962C93129711960C930F9119
:1004300008952091B1003091B200F9013296265B07
:100440003F4FCF014296DF0112971C9211961C92EA
:1004500010823396E817F907B1F7E217F30789F727
:100460000895CF93DF93C091B100D091B200FE0107
:100470003296C65BDF4F9F012E5E3F4FDF01129722
:100480008C93408311966C933396E217F307B1F780
:10049000EC17FD0781F7DF91CF9108952091B1000E
:1004A0003091B200F901E85BFF4F808331964083C1
:1004B000319660830895FC01E45BFF4F1082319612
:1004C0001082319610820895AF92BF92CF92DF9240
:1004D000EF92FF920F931F93CF93DF935C012EE473
:1004E000A20EB11CF5012081E22E01E010E002C055
:1004F000000F111F2A95E2F7613029F03297208111
:100500002150260F20836C01FDE4CF0ED11CF60193
:100510002081C22FD0E0C20FD11DC20FD11DC80F44
:10052000D91F69E070E040E050E0FE0120E030E0DB
:10053000819190E0802391230E2C02C0969587959F
:100540000A94E2F7D901A60FB71F02C0880F991FBE
:10055000AA95E2F7482B592B2F5F3F4F23303105E7
:1005600039F76296635071096D3FFFEF7F07E9F637
:1005700080E090E006C0939A949A01968C309105A1
:1005800081F094989A01082E02C0369527950A9416
:10059000E2F720FDF0CF9398949A01968C30910564
:1005A00081F7959A969A9698F6012081253021F147
:1005B00081E090E0022E01C0880F0A94EAF780954E
:1005C00088BB9598F6018081853048F0F60110824D
:1005D000F5018081843018F0F501108202C08F5F30
:1005E0008083DF91CF911F910F91FF90EF90DF906B
:1005F000CF90BF90AF9008958FEB88BBE2CFFC0106
:100600008081680F60836C3390F06C5360839181BC
:1006100081E0890F81838C3350F09B5391839281C9
:1006200081E0890F8283883110F09751928380E0B6
:1006300008950CDD15DD8AE28093B3008EE180938E
:10064000B4008EE08093B50083EB90E09093B70008
:100650008093B60048E064E08FE020DF61E070E066
:100660008091B6009091B7001ADDD12CE12CF12CCD
:100670000CEB12E060E070E08091B6009091B70062
:100680000EDDC0E0D0E010C04D2D6E2D8F2D06DFA9
:1006900061E070E08091B6009091B70000DD219696
:1006A000C03E85E1D807C9F081E07CDECE01B8010B
:1006B00027D0892BA1F7F39480E1F812E5CFE394DA
:1006C000E81611F0F12CE0CFD394D81619F0E12CF4
:1006D000F12CDACFD12CE12CFBCF61E08091B60078
:1006E0009091B7008CDFC6CF991B79E004C0991FA9
:1006F000961708F0961B881F7A95C9F7809508957C
:10070000AA1BBB1B51E107C0AA1FBB1FA617B70737
:1007100010F0A61BB70B881F991F5A95A9F7809553
:0C0720009095BC01CD010895F894FFCF26
:00000001FF
