:1000000014C019C018C017C016C015C014C013C042
:1000100012C011C010C00FC00EC00DC00CC00BC06C
:100020000AC009C008C007C006C011241FBECFED1A
:10003000CDBF02D023C0E4CF81E08ABB84E081BB86
:1000400080E090E0DC0121E034E0803345E7940774
:10005000A105B10530F42BBB32BB0196A11DB11D2A
:10006000F4CF80E090E01BBA12BA0196803345E7E6
:100070009407C9F780E090E0DC01E7CFF894FFCF68
:00000001FF
