:100000001BC02AC029C028C027C026C025C066C47E
:1000100023C022C021C020C01FC01EC01DC01CC0E4
:100020001BC01AC019C018C017C000C30EC317C325
:100030001DC327C331C33BC311241FBECFE5D1E08D
:10004000DEBFCDBF20E0A0E6B0E001C01D92A93D1B
:10005000B207E1F76DD4B1C4D3CF789480E00895AE
:100060002F923F924F925F926F927F928F929F92C8
:10007000AF92BF92CF92DF92EF92FF920F931F93B6
:10008000CF93DF93CDB7DEB76A970FB6F894DEBF94
:100090000FBECDBF98878F83DC0112968C9112978B
:1000A0002AE0622F7ED4582F492F11968C911197F8
:1000B00078D45C018C9175D4FC018091B40090914E
:1000C000B5009E8B8D8BBC012C013C01420172015D
:1000D000620182019E838D839C838B839A838983B3
:1000E0001B0120E030E0A52FB0E0BA87A987842F5C
:1000F00090E09C878B87D201A85BBF4FB88FAF8BF6
:10010000C201875B9F4F9A8F898FA201465B5F4F29
:10011000AA2DB0E0BE87AD878B2D90E0988B8F879E
:10012000AE2FB0E0BA8BA98B8F2F90E09C8B8B8B7E
:10013000AF81B88511968C9181113DC0822FA98421
:10014000BA84022E02C0B594A7940A94E2F7A0FEE6
:100150000FC0EF89F88D9081D2019C93E98DFA8DC3
:10016000908112969C93DA019C91F201918307C0D1
:10017000DB011C9212961C92129711961C92EB8531
:10018000FC8502C0F595E7958A95E2F7E0FF0FC080
:10019000AF89B88D8C91F4018383A98DBA8D8C9130
:1001A0008583FA018081D40114968C9304C0F301F5
:1001B000138215821482AF81B8858C91811143C05E
:1001C000822FAD84BE84022E02C0B594A7940A94F7
:1001D000E2F7A0FE11C0EF89F88D9081D601169646
:1001E0009C931697E98DFA8D908118969C93DA016D
:1001F0009C91F601978309C0D70116961C92169719
:1002000018961C92189717961C92EF85F88902C0D1
:10021000F595E7958A95E2F7E0FF11C0AF89B88DB3
:100220008C91ED81FE818187A98DBA8D8C91838718
:10023000FA018081AD81BE811A968C9304C0F801C9
:10024000118613861286822FA988BA88022E02C0D0
:10025000B594A7940A94E2F7A0FE11C0AF89B88DB7
:100260009C91E981FA819487A98DBA8D9C9196879A
:10027000FA019081A981BA811D969C9305C0EB81FA
:10028000FC81148616861586AB89BC8902C0B5959B
:10029000A7958A95E2F7A0FF13C0EF89F88D8081BA
:1002A000AD89BE891F968C931F97E98DFA8D808149
:1002B00051968C93DA018C91ED89FE89808B09C06F
:1002C000D1011F961C921F9751961C9251975096E0
:1002D0001C922F5F3F4FED89FE897296FE8BED8B4E
:1002E000F2E12F0E311C89819A8142969A8389838B
:1002F000AB81BC815296BC83AB83ED81FE8172964B
:10030000FE83ED830E5E1F4FF2E1CF0ED11C82E122
:10031000E80EF11C92E1890E911CA2E16A0E711C9B
:10032000B2E14B0E511C6E5E7F4F2430310509F057
:10033000FFCE6A960FB6F894DEBF0FBECDBFDF9139
:10034000CF911F910F91FF90EF90DF90CF90BF90D2
:10035000AF909F908F907F906F905F904F903F9065
:100360002F900895682F8091B4009091B500AFC090
:10037000CF93DF932091B4003091B500A82FB0E067
:10038000C62FD0E0CE0163E070E0FAD2FC01CD01CF
:1003900062E170E0F5D2E80FF91FE20FF31F10825F
:1003A0001282CE0163E070E0EBD2FC01CD0162E18C
:1003B00070E0E6D2E80FF91FE20FF31F1182DF9120
:1003C000CF910895EF92FF920F93CF93DF93A09177
:1003D000B400B091B500C82FD0E0E62EF12CC701D3
:1003E00063E070E0CDD2FC01CE0162E170E0C8D2E2
:1003F000E80FF91FEA0FFB1F40832283C70163E068
:1004000070E0BED2FC01CE0162E170E0B9D2E80F2B
:10041000F91FEA0FFB1F0183DF91CF910F91FF902E
:10042000EF9008954091B4005091B50020E030E085
:1004300080E090E0FA01E80FF91F10821182128229
:10044000039682319105B1F72F5F3F4F4E5E5F4FAC
:100450002430310569F7089585E690E09093B50062
:100460008093B4002BD0DECFCF93DF93A091B40064
:10047000B091B500E0E0F0E020E030E0ED01C20F27
:10048000D31F88834A8369832D5F3F4F2231310513
:10049000A9F731965296E430F10571F7DF91CF91CB
:1004A00008952091B4003091B500F901E85BFF4F49
:1004B000808331964083319660830895FC01E45B2C
:1004C000FF4F1082319610823196108208958F92DC
:1004D0009F92BF92CF92DF92EF92FF920F931F9362
:1004E000CF93DF939C014C018EE4880E911CE401B4
:1004F0008881E82E91E0B92E01C0BB0C8A95EAF7FD
:10050000613039F0F901E45BFF4F80818150860F43
:100510008083F901E35BFF4F808190E063E070E04E
:100520002FD2A0E0B0E000E010E06901C80ED91EB3
:10053000CD016EE070E024D28C0D9D1DAD01440F05
:10054000551F440F551F60E09C01240F351FE90122
:1005500028812B2130E00E2C02C0359527950A9476
:10056000E2F73327042E02C0220F331F0A94E2F76A
:10057000022B132B6F5F4F5F5F4F633029F711968C
:10058000A430B105A9F680E090E0C4989801082E47
:1005900002C0369527950A94E2F720FF02C0C39A5D
:1005A00001C0C398C49A01968C30910571F788E018
:1005B000C498C398C49A8150D9F7C59AC69AC69868
:1005C0002081253049F081E090E0022E01C0880FA3
:1005D0000A94EAF7809501C08FEB88BBC5988081AB
:1005E000853028F01082F4018081873018F48F5F05
:1005F000808301C01082DF91CF911F910F91FF90F6
:10060000EF90DF90CF90BF909F908F9008950F93C1
:10061000FB01408150E0405151094730510508F03D
:100620005AC04B5E5F4F4F935F9308958091630074
:1006300090916400019711F08EEF4EC005812481E6
:10064000438162818181BEDE44C0809163009091CC
:100650006400019789F7628181818ADE3AC08091C6
:10066000630090916400019739F732C08091630074
:1006700090916400019701F7438162818181F4DEEA
:1006800028C02091630030916400232BA9F62381B8
:1006900042816181A1D01DC080916300909164006E
:1006A000892B51F6438162818181FBDE12C0218159
:1006B000211106C01092640010926300D1DC09C0C1
:1006C000213039F481E090E09093640080936300DE
:1006D000A9DE82E401C08FEF0F9199C081E0809381
:1006E0006200089581E08093610008951092610096
:1006F0000895FC018081680F60836C3390F06C5327
:100700006083818191E0980F91839C3350F08B53EB
:100710008183828191E0980F9283983110F0875104
:10072000828380E00895FC01718360837383628318
:1007300075836483640F711D7783668312861186C7
:1007400040870895FC0182858823D1F09085891720
:10075000C9F0A281B3818C91DB018C938285815099
:10076000828782819381268137818217930719F4CA
:100770008481958101C001969383828380E00895EE
:1007800083E0089582E00895FC01928580859817A2
:10079000A9F0A081B1816C9382858F5F828780816F
:1007A0009181268137818217930719F4848195817D
:1007B00001C001969183808380E0089584E00895CC
:1007C000FC0182850895FC01848195819183808359
:1007D0009383828312860895089508953EC00F93EF
:1007E0001F93CF93DF931F92CDB7DEB78C016623A3
:1007F00041F0F80181918F01698342D06981615094
:10080000F6CF0F90DF91CF911F910F91089538C0CF
:100810000F931F93CF93DF931F92CDB7DEB78C0159
:10082000662351F0C80169832FD069818111F8CF07
:100830000F5F1F4F6150F4CF0F90DF91CF911F9149
:100840000F91089580E090E01FD08111FBCF80913F
:10085000000008953EC02ED038C08EEC90E09093FA
:10086000CD008093CC0040E16CEB70E05CDF12B80F
:1008700081E089B986E083B988E18AB9579A0895F9
:100880005D9BFECF8CB90895CF93DF93EC018091EF
:10089000CC009091CD0094DF882341F0BE0180917F
:1008A000CC009091CD00DF91CF914CCF81E0DF91D2
:1008B000CF9108955F9B02C08CB1FCCF08959BB18E
:1008C0009C7081E009F480E008958BB1837F8BB93F
:1008D00008958091CC009091CD0072CF1F920F921D
:1008E0000FB60F9211242F933F934F935F936F9303
:1008F0007F938F939F93AF93BF93EF93FF935F9BF0
:10090000FECF6CB18091CC009091CD003DDFFF9186
:10091000EF91BF91AF919F918F917F916F915F9177
:100920004F913F912F910F900FBE0F901F901895F0
:10093000CF93DF9300D01F92CDB7DEB78EDB02E0FE
:1009400010E088DF863020F010936400009363008D
:100950008091630090916400009761F0029789F79D
:1009600066E086EB90E054DF66EB70E0CE01019626
:100970004EDEE7CF80916000882319F3F3DCE1CFEE
:100980000024552704C0080E591F880F991F00978F
:1009900029F076956795B8F37105B9F7802D952FF5
:1009A0000895991B79E004C0991F961708F0961BCB
:0E09B000881F7A95C9F780950895F894FFCFB7
:00000001FF
